:10604400909BAD011190E223012290DEAC012290DD
:10605400D38C012290E63D012290A863012290C4D2
:1060640043012290C02F012290BAC1012290BDDACF
:10607400012290D14F012290A207012290D65F0104
:106084002290D48D0122909341011190882F011107
:106094009098BD01119089BD0133909CC00111906D
:1060A4009CC30111909CC6011190EBC4012290E1A4
:1060B400CA012290E60901229090C00111909C6AC5
:1060C4000111908D5C013390E59C01229095E701CC
:1060D40011909C7C0111908FDE011190EB1601222E
:1060E40090CC7501229080000133908A8801119030
:1060F400EC0201229093FD011190E2D201229080E2
:10610400000111908D3401339098FC0111909B6A29
:106114000111909AB40111908D060133908C5401B1
:106124003390D5800122909B22011190DE2401221C
:1061340090DD910122909A7A011190C25901229026
:0F614400993E011190DA440122909282011100DC
:106D4300FFFF0000AAAA8888F00FC003FFFEFFFA26
:106D5300FFFFAAAACCCCF0F00000FFFEFFFAFFEA87
:0E6D6300F00FFFFF0000FF7FFEBFFB6F000080
:10322100C113C112410972004108E10042077E0049
:10323100004204AB000041075C00608008E400002C
:10324100000000000000000000000000000000007D
:10325100000000000000000000000000000000006D
:10326100000000000000000000000000000000005D
:10327100000000000000000000000000000000004D
:10328100000000000000000000000000000000003D
:10329100000000000000000000000000000000002D
:1032A100000000000000000000000000000000001D
:1032B10000000000000000000000000000004108C4
:1032C100E000C10C420788FFFF023F005C0243009F
:1032D100D744096E00000000C108480964000000DD
:1032E10000000000004807CC0000000000000000C2
:1032F10048098900000000000000004809DB0000C7
:1033010000000000000042076D00004809C70000EE
:1033110000000000000048097500000000000000E6
:103321000041096D0041097E0041099200024700F8
:103331005B023B08E40241078B62A504B100000077
:10334100000000000000000000000000000000007C
:10335100000000000000000000000000000000006C
:10336100000000000000000000000000000000005C
:10337100000000000000000000000000000000004C
:1035E100000045045C00000800004104A8004208F6
:1035F100E200004204AF0000C18F41097D00C18D8E
:10360100C114C109C11041099100C10E4109CF0086
:10361100C19544076900000000C10AC111C11641EA
:1036210007660041076F004100440041078A0041DD
:1036310004ADFE4104A902410776004107CB0042D7
:08364100075E00004104AE1910
:104B720074802EF582E43409F583E0FF9004A8E006
:104B8200FE04F074422EF582E43405F5832290008F
:104B920053E0FCA3E0FDA3E0FEA3E0FF90004B1274
:104BA200417F900057E0FCA3E0FDA3E0FEA3E0FFFD
:104BB20022900989E0F8A3E0F9A3E0FAA3E022E554
:104BC2003C2FF582E4353BF583E0FE9004A8E0FD3E
:104BD20004F0E52A2DF582E43529F583EEF02290E2
:104BE2000000E0FF04F074B12FF582E43404F58391
:104BF200E0FF22F583E0FF9004A8E0FE04F0E54622
:104C02002EF582E43545F583EFF0900770E004F06D
:104C120022900000E0FE04F0745C2EF582E4340081
:104C2200F583E022E5442404F582E43543F583E08C
:104C3200FCA3E0FDA3E0FEA3E0FF22E490045CF00D
:104C4200A3F09004A8E0FF90045EE044A4F0A3E087
:104C520022901D3AE0901D38C413135403FD7C00CA
:104C6200E0C313FEA3E013FFEE540F2290077CA3D0
:104C7200E09004A8F09009D5E0FFA3E090045ECF95
:104C8200F0A3EFF09004637C087DE2E0FFA3E08CE8
:104C92003D8D3E8D828C83CFF0A3EFF022FBEF4B54
:104CA200FFEE4AFEED49FDEC48FC02417F9004A86C
:104CB200E0FD90077CE4F0A3EDF09009D5EEF0A3BF
:104CC200EFF07E087FE28E3D8F3E8F828E83E0FF83
:104CD200A3E0900463CFF0A3EFF0853E82853D838D
:104CE200E4F0A3F0A20C920E22E4FFFE7C419007B6
:104CF20056E0F8A3E0F9A3E0FAA3E0FB22540FFE8A
:104D0200EF25E0FFEE33901D384CFEEF4DFFEEF045
:104D1200A3EFF022900770E0FFC322900000E0248E
:104D22005BF582E43400F583EFF022FBEF4BFFEEFC
:104D32004AFEED49FDEC48FC02417F75FFA5E49077
:104D4200045CF0A3F022745C2FF58274003EF583BC
:104D5200E0FF901BC5E02FF0901BC4E0340022EB73
:104D62004FFFEA4EFEE94DFDE84CFC02417FEFF0B9
:104D72009004A8E0FF04F074422F2290045FE4F054
:104D82009004A8E0FF90045EE02214F5828C83EF89
:104D9200F00528E52822900002E0FFA3E0900045FC
:104DA200CFF0A3EFF0229004AEE0FF900000E06F9E
:104DB200FF9000DBE06F22F0900000E004F022851B
:104DC2002982852883E0FEA3E0FF901BC4E06E22C7
:104DD200900049FFEE4CFEEF4DFFEEF0A3EFF02204
:104DE2009009D0E0FF900770E0FEC39F227B017A1A
:104DF200057942225FFFEA5EFEE95DFDE85C22F58D
:104E020083EFF00528E52822E0FCA3E0FDECC313C4
:104E1200FEED13FFEC54E0FCED5401FDEF22D21144
:104E2200AA43A9447B0178297C007D007E007F088B
:104E3200023EA79004A8E0FF04F0E5462FF582E4C5
:104E42003545F5832290075AE0FEA3E0FFE4FCFD1E
:104E52007B807A3A7909F802404354013333335460
:104E6200F8FF9007CCE054F74FF0900995E02290BC
:104E7200076DE475F00112402DFC74DC25F0F5821B
:104E820074073C229004A8E0C394872274C0F0E423
:104E9200900770F02285488285478322EB2FFFEA34
:104EA2003EFEE93DFDE83CFC02417FFF901BC5E070
:104EB2002FF0901BC4E03400F00528E528225401AD
:104EC200C454F0FF9007CCE054EF4FF0900997E004
:104ED2002274E42FF582E43408F58322FBEF5BFFB2
:104EE200EE5AFEED59FDEC58FC4D4E4F229000005B
:104EF200E024DDF582E43400F583EFF0FF22E528BB
:104F020075F00CA424B1F9740435F0FA7B01221374
:104F120013540175F003A4FF22FBEF5BFFEE5AFE70
:104F2200ED59FDEC58FC02417FFBEF4BFFEE4AFED0
:104F3200ED49FDEC48FC02417F90045EE0FEA3E0F7
:104F4200FFEE229000DCE0FEA3E0FDEDFF901BC42B
:104F5200E06E22900545EFF0900460743FF02274F9
:104F620001F0A3747FF0223395E0FCD3ED9FEE6451
:104F720080F8EC64809822EB4FFFEA4EFEE94DFD8B
:104F8200E84CFC02417F74042FF582E43400F5837F
:104F920022748B2FF582E43407F58322901BC6E03E
:104FA200FEA3E0FFC39402EE940122E5442FF582B2
:104FB200E435432290099DE0FEA3E0FF22753B0009
:104FC200753C5C22FF900000E02F220546E546ACCE
:104FD2004522126D1090006122EFF00528E528228B
:104FE20075FFA543B701C2AF438F032278297C0026
:104FF200FDFE7F08023EA7900766E0900066F00281
:105002006A65E4901BC4F0A3F0A3F0A3F0226FFF43
:10501200EA6EFEE96DFDE86CFC22745C2FF5827489
:10502200003EF5832290045EF0A3E4F0229008E0B3
:10503200F09004AFF0A3F022F07541007542042213
:1050420090045EE04418F0A3E0F022746E2FF58223
:10505200E43400F5832290075EA3E0FF2290045E11
:10506200E04498F0A3E022E4900000F0900770F092
:1050720022901D3702417F9000007401F022754595
:105082000775465AE4F5282274802528F582E4340F
:10509200072274532528F582E434002274D425288B
:1050A200F582E434072274932528F582E434092238
:1050B2007D047C017F0022E49004A8F0900460E06B
:0B50C20022900542F0A374CEF0A32260
:105EF60012505830E2089004A97407F08023EF305E
:105F0600E1089004A97406F08017300D07EF5401DC
:105F16004402800990075EA3E0540144049004A95A
:105F2600F090075EE0FEEE30E75A30E04F30E24494
:105F360030E3395470FEE48EF01241EE5F521000E9
:105F46005F5A20005F62300000005F6A9007767437
:105F560005F080449007767406F0803C90077674CE
:105F660007F080349007767404F0802C90077674DE
:105F760003F080249007767402F0801C90077674F4
:105F860008F0801490075EE030E008900776740110
:105F9600F08005E4900776F012505854F0700590A2
:105FA60007CBF022EF30E4079007CB7402F0221201
:105FB600505830E7079007CB7405F022EF30E5071D
:105FC6009007CB7403F022EF30E6069007CB7404FB
:025FD600F022B7
:046CDD008E308F3135
:106CE10075FFA5E4FFFEC3EF9DEE9C501E0531E547
:106CF10031AA307002053014F5828A83E493FB12C5
:0E6D0100501CEBF00FBF00010E80DB75FFA5EC
:016D0F002261
:086B03008E308F318C328D338E
:106B0B0075840F43A101E4F584124FE28531828530
:106B1B003083F0538FFD75FFA5FFFEC3EF9533EE6A
:106B2B009532501D12501CE0FD0531E531AA307035
:106B3B0002053014F5828A83EDF00FBF00010E8041
:0C6B4B00DA75FFA5538FFED2AF53B7FEE2
:016B5700221B
:106D1000E4FFFDFCF584438F04EFC3948050200D05
:106D2000EDAA0470010C14F5828A83E493FEAB078C
:106D30000F745C2BF582E43400F583EEF080DA53B7
:026D40008FFBC7
:016D4200222E
:106A4D00EF54079010BBF0126D109000647453F06A
:086A5D009010BBE0900065F011
:106A6500E4F9FFFE75840F43A101F584438F0412F9
:106A75004FE2F582F583F0538FFD75FFA5E9C394C9
:106A850080501AAD0109745C2D124C1DFD0FEFAA43
:106A95000670010E14F5828A83EDF080E0538FFABB
:056AA500D2AF53B7FE63
:016AAA0022C9
:1067DE00300F08752906752A4C8006752905752A0D
:1067EE0042E4FF124BC10FBF04F990005BE0FE3094
:1067FE00E0217F04E53C2FF582E4353BF583E0FD97
:10680E009004A8E0FC04F0E52A2CF582E43529F585
:10681E0083EDF0EE30E1057F05124BC190005BE099
:10682E0030E2097F06124BC10FBF0AF990005BE000
:10683E0030E3097F0A124BC10FBF0EF990005BE0E7
:10684E0030E4097F0E124BC10FBF44F990005BE09C
:0C685E0030E5097F44124BC10FBF7AF9EE
:01686A00220B
:10628200E4901BC8F09009D0F0901BC6F0901BC69A
:10629200E0FFC39408400302634974292FF8E69093
:1062A2001BC9F0E07003026340E4901BC7F0901B2F
:1062B200C7E0FFC39408400302634074017E00A854
:1062C20007088005C333CE33CED8F9FF901BC9E04F
:1062D200FDEF5D6060901BC8E0FF901BC6E03333AA
:1062E2003354F8FEA3E02E900000F02542F582E43C
:1062F2003541F583E0FEEF4E901BC8F03011369029
:1063020009D0E0FFC394094004C2118028EF600D58
:10631200247FF582E43409F583E04480F0900000A4
:10632200E0FF9009D0E0FE04F074802EF582E434A0
:1063320009F583EFF0901BC7E004F00262B0901BF6
:0C634200C6E004F002628F901BC8E0FF70
:01634E00222C
:106BEB00754900754A5C126044901D3AE07004745C
:106BFB0080F022E4901D3AF0901D38124C62FEC3D7
:106C0B00EF94FFEE940F901D38500C124E0A240196
:106C1B00FFE43E124CFF22E054E0F0A3E05401F0FD
:016C2B002246
:105D570090078AE024FE606B24F0606724137003C9
:105D6700025EF024FE6003025EF5900045E0FCA3AE
:105D7700E0FDAE047802CEC313CE13D8F9FFEE547C
:105D87000FFEEF25E0FFEE33FE901D38E054E0FAFA
:105D9700A3E05401FBEA4EFEEB4FFF901D38EEF0F7
:105DA700A3EFF07E00ED54037806C333CE33CED88D
:105DB700F9901D3AF0124FBFE490076FF090078AF1
:105DC7007402F0124E86400512505FF02290078A47
:105DD700E0B4121E7402F0124D98900766E0FF902F
:105DE700076FE014FEC3EF9E900766F090076F748D
:105DF70001F0124C53FEEF7802C333CE33CED8F9FD
:105E0700FFEE900002124D0B126BEB125069124D10
:105E170016947F500E745C2F124C1D124FC6124CF5
:105E27000B80EB124DA86013124D7D449CF0A3E04C
:105E37004FF090078A74FFF0C21622900002E0FE2E
:105E4700A3E0FF900049E0B50616A3E0B5071112DD
:105E57004C53FEEF7802C333CE33CED8F9124DD26E
:105E6700900060E020E703025EF590076FE004F022
:105E7700124E20126282124E97EFF0124B7EEFF015
:105E8700301112E4900770F0124DE25036124B7247
:105E9700124C0A80F3124D72124B88124E8E124D1D
:105EA700169404500B124FAD124B7A124C0A80EE27
:105EB700E4900770F0124D72124B88E4124C0BE01D
:105EC700B404F21267DE124E86402390045FE4F0BA
:105ED7009004A8E0FFFD12505F4DF0EF2479900881
:0F5EE700E3F090078A7412F022E490078AF02209
:106C6900901D3AE06004E4F08029901D3A7480F0A8
:106C7900901D38124C624F901D38600E124E0A2436
:106C8900FFFFEE34FF124CFF8009E0441FF0A3E040
:0C6C990044FEF0754900754A5C0260443E
:105BAA00124E86400A90045EE04480F0A3E0F09032
:105BBA0008E0E0146023146066147003025D472451
:105BCA00036003025D56901D3B124BA712507312DD
:105BDA004FBF9008E07401F02290045EE030E703C2
:105BEA00025D56126C69E4900000F0F528745C2599
:105BFA0028124C1D124FC6F00528E528B47FEE1274
:105C0A004DA86003025D40854082853F83124C3176
:105C1A009009E3124CF3C312416E5003025D569091
:105C2A00045EE030E703025D569008E0E0B4020546
:105C3A00126C6980069008E07402F0E4900000F0AB
:105C4A00F528745C2528124C1D124FC6F00528E56C
:105C5A0028B47FEE124DA86003025D40854082851C
:105C6A003F83124C319009D7124CF3D312416E4044
:105C7A0003025D40854482854383124C3190004B78
:105C8A00124BB6124EDE7011124C2690004F124B78
:105C9A00B6124EDE7003025D56300F19901B06E0F5
:105CAA0020E00A90045EE04401F0A3E0F0754506A6
:105CBA0075464C8006754505754642C211124E97C7
:105CCA00743FF0301117E4900770F0124DE2503231
:105CDA0074802EF582E43409124BF580EE124E35AB
:105CEA00124E8E124D1694045008124FAD124BF5F7
:105CFA0080F1E4900770F0124E35E4124C0BE0B4D8
:105D0A0004F51267DE124D7D4484F0A3E04FF0E4FF
:105D1A009008E3F090097375F001124017FED390D2
:105D2A000789E095F0900788E09E5020200F0790A1
:105D3A00045EE0547FF09008E07403F022124D7D77
:0C5D4A00F0A3E04FF0C20CE49008E0F081
:015D5600222A
:106C2C00E4FF901BC6F0A3F074B12FF582E434049A
:106C3C00F583E0FD901BC7E02DF0901BC6E03400FF
:106C4C00F00FBF8AE390053BE0FEA3E0FF901BC66C
:0C6C5C00E06E7003A3E06F6002C322D35F
:016C68002209
:10436300900991E01241C843B90043D20145A30229
:10437300474703495D05491A0845A30946EC0B471E
:104383001A0F47DC1044A93145F8334689354A2DC5
:104393003744A93D47D141486F4348DB454A3D4730
:1043A3004A114D47745347955B4B2D7B4A52CC4A78
:1043B3006DFF00004AE090045CE020E703024B48F5
:1043C3009004B1E0900460F09009917401F022121E
:1043D3004F3B30E603024B48124CAF5040901D3721
:1043E300124BA790076112417F9008E0E0900462AE
:1043F300F09009E3124C3190077812417F900788BF
:10440300E0FFA3E0900047CFF0A3EFF0900973E043
:10441300FFA3E09004A5CFF0A3EFF0C20CC20F30CE
:10442300381074221250279009C57422F0A3E4F0C7
:10443300801990045CE05403A37F004420FEA3F0A2
:10444300A3EFF09009C5EEF0A3EFF0900460E0FF56
:104453001241C844960344960B44960F4496314444
:10446300963344963544963744963D449641449654
:104473004344964544964744964B44964D44964F41
:1044830044965144965344965B44967B4496DB0092
:1044930000449C900991EFF022124D40A3E0448424
:1044A300F0A3E002476D126C2C4003024A42125003
:1044B30079E4F528124BE1744B2528F582E43400A6
:1044C300124E01B408EEE4F528124BE17465252879
:1044D300F582E43404F583124D91B440EC124BE1C0
:1044E3007E00900788EEF0A3EFF0700874FF90074A
:1044F30088F0A3F0E4900973F0A3F07545097546BD
:10450300D1F528124BE1124FCD70020545124D8CA7
:10451300B404F0125080124BE1124FCD70020545E6
:10452300124D8CB402F0124E47C004C005C006C041
:10453300079009D1124C31123D56D003D002D0015D
:10454300D0009009D7124E9E7545097546D1E4F502
:1045530028124BE1124FCD70020545124D8CB40465
:10456300F0125080124BE1124FCD70020545124DEF
:104573008CB402F0124E47C004C005C006C00790B9
:1045830009D1124C31123D56D003D002D001D000D4
:104593009009E3124E9E124D409009917402F0224D
:1045A300E49004A8F0754104754265753B08753CB9
:1045B300E4C2117B017A00794B124FEE1262821230
:1045C3004E97EFF0124B7C124D70124B887440F0F3
:1045D3001267DE90045FE4124C434FF0900991E0C0
:1045E30064026003024B45E49008E0F0D20C9009AA
:1045F300917408F022126C2C4003024A42E41250D8
:104603002FC20EFF124B49900000F0F528124DBA4D
:1046130024B1124BEB124D1DFF12508A124E01B4FE
:1046230008EBE4F528124DBA24B1124BEB124D1DE1
:10463300FF125094124E01B408EBE4F528124DBA60
:1046430024B1124BEB124D1DFF12509E124E01B4BA
:1046530008EBE4F528124DBA24B1124BEB124D1DB1
:10466300FF1250A8124E01B432EB900000E0C39445
:1046730082500DE004F024B1124BEB124D1D80EA81
:10468300126DE10246D7126C2C4003024A427F00AE
:10469300124B49900000F0F528124DBA24B1124B89
:1046A300EB124EEF74042528124F8BEF124DB924F1
:1046B300B1124BEB124EEF748B2528124F96124D0D
:1046C30091B440D5900532E090015EF0900533E05F
:1046D30090015FF075FFA51250B27E24126B031296
:1046E3004D3D9009917405F022126C2C4003024A4F
:1046F300427E047FB11260495043E4F528124F0013
:10470300AF28124B6740F612604E90052AE0FFF483
:10471300602B126A4D8026126C2C4003024A429091
:1047230004B2E0B41F09124FD474AAF0126A6530C0
:104733003809901D0CE04401F08002D22F900991BA
:104743007403F022900460E0B40308126C2C40035D
:10475300024A42E49004A8F0124D41124DEF126058
:10476300539004A8EFF0124C494FF0900991024B7B
:1047730045126C2C4003024A42124D40124DEF1277
:1047830060589004A8EFF0124C494FF09009910241
:104793004B45126C2C4003024A42E4F528124F00A9
:1047A300E528240BFF124B6740F390052AE0FFF442
:1047B3006003126A4D124D40124DEF12605890047F
:1047C300A8EFF0124C494FF0900991024B45E49049
:1047D300096CF09009917410F090096CE0D3940186
:1047E3005003024B4890045CE05403FEEEB4010412
:1047F3007F0180027F008F2874B22FF582E4340496
:10480300F583E024FE601B24FE602414602B1460F7
:104813003214603924067045124DEFAD2812605DE5
:104823008036124DEFE4F52DAD2812606280291217
:104833004DEFAD28126067801F124DEFAD28126057
:104843006C8015124DEFAD28126071800B124DEF85
:10485300752D01AD281260629004A8EFF0124C3D53
:104863004FF0A37420F0900991024B451250B9B454
:10487300430D126C2C4003024A42124D408002C287
:104883000AE4F52812508AF583E0FF124B7E124F9B
:10489300DBB408F0E4F528125094F583E0FF124BE3
:1048A3007E124FDBB408F0E4F52812509EF583E046
:1048B300FF124B7E124FDBB408F0E4F5281250A828
:1048C300F583E0FF124B7E124FDBB432F0124C44FF
:1048D3004FF0900991024B451250B9B4450B126C3D
:1048E3002C4003024A42124D40E4F5287404252863
:1048F300F582E43400124B7AEFF0748B2528F582AD
:10490300E43407124B7A124D91B440E0124C444FF9
:10491300F0900991024B45754104754265300C10C6
:104923009009C5E0FEA3124D854EF0A3E04FF0229F
:10493300124F3B30E603024B48EF60179009C5E086
:104943004484FEA3124D854EF0A3E04FF0900991ED
:10495300024B459009917409F0227F00124B547465
:104963005C2528124C1D124EADB480F3124F4570D6
:1049730003A3E06F60051250798005E4900000F016
:1049830075FFA57F82124B54745C2528124C1D12AF
:104993004EADB480F3124F457003A3E06F600790F0
:1049A3000000E04402F0900460E064337030900053
:1049B30000E0FF30E02174331250C37435F0EF3060
:1049C300E1047FCE80027F00124F55124C4944040C
:1049D300F0900991024B459009917443F0229000A5
:1049E30000E0FF30E12174351250C37433F0EF302F
:1049F300E0047FCE80027F00124F55124C494404DD
:104A0300F0900991024B459009917445F022126C84
:104A13002C4002802A7B017A0479B2126076E490FA
:104A2300096CF0900991747FF022126C2C40028083
:104A33000E124D3D900991024B45126C2C4007908C
:104A4300099174CCF022124D40900991024B45120A
:104A53004C494402F0A3E0900542F0A374CC124FFA
:104A630059124D40900991024B4590045EE030E7A6
:104A730003024B48124C6ED20FC238300E52D20C86
:104A8300900761124C31125073900462E09008E079
:104A9300F09009D712418B00000000900778124C68
:104AA300319009E312417F124B9090004F12417FE6
:104AB300900047E0FFA3E0900788CFF0A3EFF090CA
:104AC30004A5E0FFA3E0900973CFF0A3EF12503ADF
:104AD300124FBFE4900460F0900991F02290096CAA
:104AE300E0D39401405F90054274C0F09004A87431
:104AF30001124E90124D169408501674892FF582A8
:104B0300E43409F583E0FF124B7EEFF0124C0C8086
:104B1300E3124E97743FF0753B08753CE41267DE71
:104B2300124C3D4FF090099180187E047FB21260C1
:104B33007B5009C2239009917441F022124D409099
:054B4300099174FFF070
:104B4800227D047C017E24126CDDE4227D827C00BF
:104B58007E24126CDDE4901BC4F0A3F0F528221229
:0A4B680060800528E528C3940A22A6
:105481009009CFE01241C854A700551A01554402B2
:1054910055890354EC11551A2156E42256FF23571E
:1054A10063FF0000578F900044E0FF30E60302578E
:1054B10094EF30E22254FB900044F0201619D216EA
:1054C10090076FE0FF900766E02FF0E49004ADF0E5
:1054D1009009CF7411F0222009030257949009CF4B
:1054E1003016047421F0227401F022124FD4745545
:1054F100F09000457C007D62124C8D124FF99009AD
:105501007912418B0000000090097512418B000057
:105511000000C209C21002578F124F3B30E603024E
:105521005794124CAF500E901D37124BA790076144
:1055310012417FC20CC20F74101250279009CFE0A4
:1055410004F022E49004A8F090076DE0FEA3E0FFD0
:105551004E6010745A2FF58274073EAF82F53B8F6F
:105561003C8006753B08753C5E75410775428B9022
:10557100097EE090075DF090045EE04410F0A3E046
:10558100F09009CF7403F022E53C247AF544E43528
:105591003BF543854482124C2FE4FBFAF9F8C31220
:1055A100416E702C124C26E4F8C312416E7021C278
:1055B100110B7A097975124FEE126282124E97EF32
:1055C100F0124B7E124D70124B887440F00256114E
:1055D100124E20126282124E97EFF0124B7EEFF0C4
:1055E100301112E4900770F0124DE25023124B7209
:1055F100124C0A80F3124D72124B88124E8E124DCC
:10560100169408500B124FAD124B7A124C0A80EED1
:105611001267DE74DCB53C0D7407B53B08753B08B9
:10562100753C5E800C747E253CF53C74FF353BF582
:105631003B90075DE014F06008124E86500302575C
:1056410094900975E030E06A9015F4E030E024C2EE
:1056510023901B1F7401F09004B17441F0A37407EF
:10566100F090045C7480F0A37402F0E4A3F0A3F062
:105671000256BD124E86503A901D3CE0FF124B7E01
:10568100EFF0901D3DE0FF124B7EEFF0901D3EE0EC
:10569100FF124B7EEFF0E4F584124D72124B88E558
:1056A100EFF09004AA124B7CEFF09004AA7401F081
:1056B1008000124D824494F0A3E04FF090097912DA
:1056C100418B0000000090097512418B0000000021
:1056D100C210124D9890076FE0900766F0E49007B2
:1056E1006F805FE49004A8F075410775428B1250FA
:1056F1004290078A7401F09009CF7423F02290043C
:105701005EE054C06003025794900044E0FF30E42F
:1057110003025794EF30E02D54FE900044F0D2166E
:10572100E49004ADF0124FD47455F0900045E0FFC1
:10573100A3E07C007D62124C91124FF9C210E490FB
:10574100078AF08016125D5790078AE060041250B4
:105751004222124FD474AAF0126A659009CF74FFE5
:10576100F02290045EE020E72AA2109209300E0E8A
:10577100D20C900761124C3112507312503B124FF0
:10578100BF7543007544D7124C6ED20F8000E49070
:0457910009CFF0222A
:016DE100228F
:1050CD007528007529DCC235E4900000F07D82FC66
:1050DD00FF125471900770F0124D169480500E749B
:1050ED005C2F124C1D124D53124C0B80EB124DC107
:1050FD007003A3E06F600302518D900770F0124DA5
:10510D001694085015124C13FE74802FF582E4345A
:10511D0007F583EEF0124C0C80E4E4900770F0126A
:10512D004D1694085015124C13FE74532FF582E44E
:10513D003400F583EEF0124C0C80E4E4900770F02F
:10514D00124D1694085015124C13FE74D42FF5827F
:10515D00E43407F583EEF0124C0C80E4E490077014
:10516D00F0124D1694324003025269124C13FE7424
:10517D00932FF582E43409F583EEF0124C0C80E1A7
:10518D00D20A90078012418B8103000F9007841281
:10519D00418B0000000090005312418B0000000075
:1051AD0090005712418B000000009007D412418BE4
:1051BD00000000009007D812418B000000009009FC
:1051CD00957401F0A37432F0A37401F0A374ECF0A4
:1051DD009009937401F0A3745AF0E490099DF0A323
:1051ED00F090099FF0A37405F09009A1124F619002
:1051FD0009A5124F619009A9124F619009AD124F87
:10520D00619009A37401F0E4A3F09009A704F0E400
:10521D00A3F09009AB04F0E4A3F09009AF04F0E41F
:10522D00A3F0A37402F09009B3F09009B5F09009C2
:10523D00B7F0E49009B2F09009B4F09009B6F0908F
:10524D0009B8F090099904F0A37450F0A37401F01B
:10525D00A374F1F09009B97401F0A3F075FFA512D4
:10526D006DE1E4900000F07D82FC7F82125471901C
:10527D000770F0124D169480500E745C2F124C1D59
:10528D00124D53124C0B80EB124DC17003A3E06F06
:10529D007021900770F0124D1694405032124C133D
:1052AD00FE124F88EEF0124C13FE124F93EE124C7D
:1052BD000B80E3E4900770F0124D169440501012DD
:1052CD004F93743FF0124F88743F124C0B80E912CC
:1052DD0050B27E20126CDD75FFA575280175295E13
:1052ED00125004124F9E5014124D48F0901BC7E0FF
:1052FD0004F070EF901BC6E004F080E775FFA51277
:10530D004DC17003A3E06F70359000B7E0901B198D
:10531D00F0D394084002E4F0E4900770F0901B196C
:10532D00124DE5502074B82EF582E43400F583E07B
:10533D00FF74262EF582E4341B124C0880DFC23632
:10534D00126085D235E4900000F0901D327490F01B
:10535D0030280512608A800312608F75FFA5901D9D
:10536D0028E030E4EB901D28E020E551E490077033
:10537D00F0124D1694085045E0FE90201293FD74E6
:10538D00292EF582E4341DF583E06D602B9000002D
:10539D00EFF0900000E0C394085016E0FF2429F5CB
:1053AD0082E4341DF583E0FE12504DEE124DB980AE
:1053BD00E175FFA5D2358005124C0C80B4E4900741
:1053CD0070F0124D1694085058EF90201293F4601F
:1053DD004BE4F520900000F0900000E0FFC394072F
:1053ED00500EEF90201293FF126094124DBA80E888
:1053FD00902019E49365206028900770E0900000DC
:10540D00F0900000E0FFC39408500A12504D74FF55
:10541D00124DB980EC75FFA5D2358005124C0C806C
:10542D00A175FFA5303536125004124F9E5014123F
:10543D004D48F0901BC7E004F070EF901BC6E004E0
:10544D00F080E7901BC4E0FFA3E0852982852883C7
:10545D00CFF0A3EFF01250B27E20126B03900777BE
:03546D007402F0D6
:10547000227E24126CDD75FFA5E4901BC4F0A3F01E
:015480002209
:0A6DCD00E4901CCBF09008E1F022E6
:0A6DD7007A00790075B11102421B29
:1028000012609975FFA5D29775840F75D8FFD2A66F
:10281000D2B2D2A5C2B3C2B1901A747407F0A37435
:10282000DFF0901A73740AF0901A7204F0E4901AB0
:1028300071F0901A70F0901A6FF075840FA2D84062
:10284000079015F4E04401F0C2B512609E1260A337
:1028500075FFA51260A81250CD75FFA590099FE0E5
:10286000FFA3E090077ECFF0A3EFF01260AD75FFFD
:10287000A5D2B51260B21260B71260BC75FFA57523
:10288000FFA51260C1E490075AF0A3F090075AE048
:10289000FEA3E0FFC39404EE9401501D74DC2FF5F9
:1028A0008274073EF58374FFF090075BE004F070DC
:1028B000DB90075AE004F080D375FFA51260C612C2
:1028C0006D1090005CE0B45503D38001C3923A9040
:1028D0000061E0B45519D2167E007F628E3D8F3EB6
:1028E00005828E83124D9B900066E0900766F09003
:1028F000005DE0900768F0E004F090005DF0126A7F
:102900006575FFA51231F96005EF9004A8F012601B
:10291000CB900772EFF0BFFF0890097DE09007723F
:10292000F090097DE0FF900772E0FE6F6024EE14E6
:10293000600824FC500D2405701090098AE04410B2
:10294000F0800790098AE04420F0900772E0900937
:102950007DF0900772E05407FFC454F09008E8F04F
:102960001260D01260D51260DA4003022BB8901DBD
:1029700022E0940A901D21E094005004E4F0A3F0BA
:10298000901D21E0FCA3E0FDE4123D1D7B9A7A0737
:1029900079A0783E123AF990075612417F7F9A7ECD
:1029A000997D197C40124CF074FF123CA150051225
:1029B00050798018E4900000F0124CF0E4FFFE7DA6
:1029C000407C41123C029009D112417F9008E1E025
:1029D000FF20E009901D13A3E09008EAF0EF20E14A
:1029E00009901D15A3E09008EBF09008E1E020E2CB
:1029F00009901D17A3E09008ECF09008E1E0FF209B
:102A0000E309901D19A3E09008EDF0EF20E4089091
:102A10001D0EE09008EFF07DCC124CEB74FF123CE1
:102A2000A1600A40089008EE74FFF080107D20122B
:102A30004CEB123AF9123D569008EEEFF09008EE8A
:102A4000E0C3940A5002E4F075FFA5900964E01316
:102A500013540175F005A4FF900994E07C002FFF4A
:102A6000EC35F0FE9008EEE0D39FEE6480F87480C1
:102A700098501E900964E04404F09007CCE020E2F6
:102A800035900993E020E0047F0180027F00EF8011
:102A900016900964E054FBF09007CCE030E2179008
:102AA0000993E0A2E1E433540125E025E0FF90071B
:102AB000CCE054FB4FF0C3901D1EE09432901D1DDE
:102AC000E0940090075FE040054401F0800354FE6D
:102AD000F0900964E013124F11900996E0C39FFF34
:102AE0009008EFE0FDC3EF6480F8ED648098402B20
:102AF000900964E04408F09007CCE020E347900997
:102B000095E020E0047F0180027F00EF124E5C30F0
:102B1000E033900780E030E32C8023900964E05498
:102B2000F7F09007CCE030E31C900995E0A2E1E4D7
:102B300033124E5C30E10E900780E030E3079008DE
:102B4000E1E04410F0900964E0C4124F139009983A
:102B5000E0FB3395E0FAEF2BFFE5F03AFEED124F84
:102B600069502B900964E04410F09007CCE020E419
:102B700047900997E020E0047F0180027F00EF1278
:102B80004EC030E033900780E030E42C8023900981
:102B900064E054EFF09007CCE030E41C900997E03B
:102BA000A2E1E433124EC030E10E900780E030E441
:102BB000079008E1E04410F075FFA5302805126089
:102BC0008A800312608F75FFA5901D27E0FF647F48
:102BD0007003022C9B900964E0C413540175F00348
:102BE000A4FE90099AE0C39EC36480F8EF648098C5
:102BF000401E900964E04420F09007CCE020E535C9
:102C0000900999E020E0047F0180027F00EF8016A8
:102C1000900964E054DFF09007CCE030E5179009AC
:102C200099E0A2E1E4335401C43354E0FF9007CCAF
:102C3000E054DF4FF0900964E0C4124F1190099CFA
:102C4000E0FD3395E0FCEF2DFFE5F03CFE901D2705
:102C5000E0FD124F69501E900964E04440F0900777
:102C6000CCE020E63690099BE020E0047F01800262
:102C70007F00EF8016900964E054BFF09007CCE02D
:102C800030E61890099BE0A2E1E4335401C43333E9
:102C900054C0FF9007CCE054BF4FF01231F96005EB
:102CA000EF9004A8F01260DF75FFA51260E475FFD5
:102CB000A5C20B1260E975FFA5300B0990045EA355
:102CC000E09004A8F01260EE75FFA5125EF6200DEC
:102CD00019C39004ACE094A09004ABE09405400AC2
:102CE000E4F0A3F0C215900768F030154790099FF3
:102CF000E0FEA3E0FFC390077FE09F90077EE09E89
:102D00005003022D89200D0A900989E04480F002C9
:102D10002D829007CCE030E07090045CE054C0A3BA
:102D200070679004B1744FF090045C7481F0A374E8
:102D300001F0804E90077EE07002A3E0604B124FDE
:102D4000B69004ABE0FCA3E0FDC39FEC9E403312C1
:102D50004FB6EDB5070BECB50607900989E0448046
:102D6000F0D215124FB6C3ED9FFFEC9EFE90099F67
:102D7000E0FCA3E0FD123F8C90077EECF0A3EDF0A9
:102D80008007E490077EF0A3F01260D09008E8E09E
:102D9000FFA20AE43333333354F8FEA23AE4334E4D
:102DA000FEEF4EF0124BB3FBC000C001C002900713
:102DB000CC124BA7900964124BB6125010D002D01F
:102DC00001D000900989124D6190098D124BB6FB1C
:102DD000C000C001C0029007D0124BA79009681232
:102DE0004BB6125010D002D001D00090098D124D78
:102DF00061200803023172C20875450975466EC22A
:102E0000ADE4900770F0900770E0FF2546124E3F4A
:102E1000E0FE124ED3EE124C0BE0B404E9D2AD90BA
:102E20000964E020E00302316F9009C7124BB6FB42
:102E3000C000C001C0029007D4124BA7124BB312BE
:102E40004DF6FCD002D001D0009009C7124F799006
:102E500009CB124BB6FBC000C001C0029007D812CC
:102E60004BA790098D124BB6124DF6FCD002D00143
:102E7000D0009009CB124F791260F3901CCAE05435
:102E80000F4F9008E9F09009CFE064037003022F20
:102E9000F09009C7124BA7EC4D4E4F700F9009CB25
:102EA000124BA7EC4D4E4F7003022F6B301649901A
:102EB0000766E004F0300903022F54E0C3648094F5
:102EC000B24012900049124D9B9007667419F09021
:102ED00009CF7411F0900766E064197077901D3E79
:102EE000E0901D3C124C5AFEEF7802C333CE33CE35
:102EF000D8F9124DD2022F54900975124BA79009A0
:102F0000C7124BB6900975124C9F900979124BA7C6
:102F10009009CB124BB6900979124D2D20102B90B1
:102F20001D3EE0C413135403FD7C00901D3C124C65
:102F300062FEEF7802C333CE33CED8F9900002128E
:102F40004DD590076F7401F0800690076FE004F094
:102F5000D210D209900777E0900992F09008E8E04B
:102F60004480F090096D7402F08008301005E49000
:102F7000096DF090096DE0FF04F0EFC3940240701A
:102F80007401124E90124D16947A500D124ED3E0E9
:102F9000FF124E71124C0880ECE4900770F0124D55
:102FA000169408501874C72FF582E43409F583E0AD
:102FB000FF124E71F583EFF0124C0C80E190076D1B
:102FC000E0B4010CA3E0B40407E490076DF0A3F0B3
:102FD00090097EE0C394025003E004F09009CB1204
:102FE000418B000000009009C712418B00000000D7
:102FF00075FFA5900777E0FF900992E004F0C39F6A
:103000005003023172E4F09015B97403F030143CAF
:10301000C214C20D900989124BA79009DB124BB65E
:10302000900989124C9F90098D124BA79009DF12CD
:103030004BB690098D124D2D9009DB12418B00008B
:1030400000009009DF12418B0000000090098912F6
:103050004BA7900780124BB6900989124F1B90091D
:103060008D124BA7900784124BB690098D124F1BFF
:10307000300D249009DB124BA7124BB39009DB12E1
:103080004F2B9009DF124BA790098D124BB6900978
:10309000DF124F2B023141900989124BA7EC4D4EA4
:1030A0004F700F90098D124BA7EC4D4E4F700302DD
:1030B0003141E4900770F0900770E0FF2489F582B9
:1030C000E43409F583E0FE745F2FF582E43409F5FA
:1030D00083EEF0124C0CE0B404DD125069124D1670
:1030E000947F500C124ED3E0124FC6124C0B80ED61
:1030F0009004AEE0FF900000E06F900963F0754926
:1031000008754AE41260F875FFA59008E8E0547F5E
:10311000F0900053124BA7124BB3124DF64D4E4F89
:103120007011124BA490098D124BB6124DF64D4EF4
:103130004F600E9004B0E004F070069004AFE0041D
:10314000F0900964124BA79007CC12417F90096858
:10315000124BA79007D012417F90098D12418B002E
:1031600000000090098912418B00000000800012CD
:103170006DCD75FFA5300C03125BAA75FFA5303825
:1031800006124363022901900991E07003125481F1
:103190009009CFE0700312436375FFA5200F03026F
:1031A000290190045EE04408F0A3E0F09004AFE051
:1031B000FAA3E0FB4A7003022901300C0302290143
:1031C0009009D712418B000000009009E312418B57
:1031D000FFFFFFFF124B9090004F12417F90078836
:1031E000EAF0A3EBF0E4900973F0A312503AD20C8A
:1031F00012502F125BAA02290190045EE0A33392C1
:103200000B1260FD75FFA512610275FFA590045EAB
:10321000E0FEA3E0FFEE5480FCA20BE433FBEB4C9A
:01322000228B
:10364900501D1300000000000000000000000000F1
:10365900000000411D0E00C139411D2300411D24F8
:0836690000441D0F00000000E9
:109BEA00901D0FE0F8A3E0F9A3E0FAA3E0FB222519
:0B9BFA00E02413F582E4341DF5832203
:109C7C0020390DE4F584901D23E0F5BBD2ECD239EC
:019C8C0022B5
:108FDE002039030290BEE4F58430EC02C322C2397C
:108FEE00901D23E064086016E5BFC313FFE0FD0487
:108FFE00F0ED129BF9E48FF01240170290BE129B17
:10900E00EAC000E5BFC4F854F0C868FEE5BEC4541B
:10901E000F48FFE4FCFDD000EB2FFFEA3EFEED39DA
:10902E00FDEC38FC901D0F12417FE4901D23F0A340
:10903E00E004F0C3942A4078E4F528E528129BF961
:10904E00C083C082E0FEA3E0FF7C007D2A123F8C2D
:10905E00D082D083EEF0A3EFF00528E528B408DB2C
:10906E00901D0FE0FCA3E0FDA3E0FEA3E0FFE47B78
:10907E002AFAF9F8126BA7901D0F12417FE47F3B7D
:10908E00FEFDFC129BEA124043EF24E0FFEE34D0CB
:10909E00FEED34FEFDEC34FFFCE47B1E7A01F9F8A4
:1090AE00126BA7901D0EEFF0901D247401F0D322C9
:0190BE00C3EE
:0190BF00228E
:10367100014B00441D3B00000000441D37000000C9
:013681000048
:10974700E0FCA3E0901D3CFDECC313FEED13FFEC22
:1097570054E0FCED5401FDEF2401FFE43E540FFEFD
:10976700EF25E0FFEE334CFEEF4DFFEEF0A3EFF0F9
:1097770022901D3CE0C313FEA3E013FFEE540FFE3F
:10978700C3EF94FFEE940F22E054E0F0A3E05401FE
:10979700F022F0754B31E0F59B22E54A2480FEE488
:0A97A7003549901D40F0A3CEF022DA
:0A9CAA00E54B600575FFA580F72269
:109C050020B60575FFA580F8E4F584C2AAC2B6752D
:0B9C15009A70F59D75F80B75FFA522F5
:0C9C9E00129C05754B11759B57029C052C
:1093FD00129C9E7F3B754C1D754D3B901D3EE02490
:10940D0080601024807068754B41901D3F7480F012
:10941D0002947C901D3CE0C313FEA3E013FFEE54B9
:10942D000F90075AF0A3EFF0129778901D3C40056E
:10943D0012978F8003129747901D3B748112979955
:10944D00129C0590075AE0540FFEA3E025E0FFEEB5
:10945D0033FE901D3CE054E0FCA3E05401FDEC4EC6
:10946D00FEED4FFF901D3CEEF0A3EFF0754B01129A
:10947D0097A1901D3B7484F0E0F59B129C9E74881F
:10948D00129799129CAA901D3EE070047480F022F0
:10949D00E4901D3EF0129778901D3C400412978F7A
:0594AD00221297472286
:109BAD001297A1129C9E7E1D7F37754C1D754D37EA
:0F9BBD00901D377468F0754B21E0F59B029CAA50
:1090C0007545007546DB754900754A5C129BAD75A8
:1090D000FFA5E4900000F0754900754A5CC3E54ABD
:1090E0009546E54995455019054AE54AAE4970024D
:1090F000054914F5828E83E0FF900000E02FF08098
:10910000DC854682854583E0FF9004AEE0FE90005A
:1091100000E06E6F7030901D3AE070057480F08052
:10912000A5E4901D3AF0901D3812977B4008901DE1
:109130003812978F8010901D38E0FCA3E0901D3806
:1091400012974E0290C6901D37E0FCA3E0FDA3E00D
:10915000FEA3E0FF901D3B12417F75FFA57E1D7FA2
:109160003B754C1D754D3B129C05901D3EE0901DBE
:109170003B7004748180267453129799129C9EE46C
:10918000F549F54A901D3EE0F404A3F0901D3B74B0
:1091900084F0754B51E0F59B129C057483129799EE
:0191A00022AC
:10656500696E7465726E65742E6265656C696E65BB
:106575002E727500006265656C696E650000504F8E
:106585005354202F49746572697353657276657229
:106595002F7765627265736F75726365732F70739C
:1065A50069642F7075745F647420485454502F319A
:1065B5002E310D0A000053455450415353202200FB
:1065C50052455345542000535441545553004750A8
:1065D5005253202200485454502022005350454322
:1065E5005452554D200053455450484F4E45532065
:1065F5000047455450484F4E45530047455456456E
:08660500520052454C452000F3
:10368200411B2200411B2400411B2500411B2F002E
:10369200411B3000411B3200411B3300411BC20061
:1036A200411B1400411B1600411B1800411B2E0038
:1036B200411B3100411BC100411BC300411B1500CE
:1036C200C12FC132C130411B1700411B1F00411BDA
:0236D2001A00DC
:1036D400501C8200000000000000000000000000F8
:1036E400000000501C7200000000000000000000F8
:1036F400000000000000441C6E00000000501CA2EA
:1037040000000000000000000000000000000000B5
:10371400501C9200000000000000000000000000A7
:0A372400000000441C6A00000000D1
:105795004552524F004F4B002B435041533A203056
:1057A500002B4352494E4700564F49004E4F204368
:1057B5004152002B434D4520455252002B434D533A
:1057C50020455252002A453249504F3A002A453267
:1057D5004950413A00434F4E4E45002B434C4950EA
:1057E5003A002B435343413A00313435002B4350A3
:1057F50042523A002B4353513A002B435245473A04
:10580500002B434F50533A002B434349443A002A57
:10581500453253534E3A002B4344533A002B434DE4
:10582500474C3A002B434D47533A20003E20004158
:10583500545A0D000041542B434D47463D300D0051
:1058450000415445300D000041540D000041542BDA
:105855004950523D393630300D0000415426570D20
:1058650000004A616E4665624D61724170724D611C
:10587500794A756E4A756C4175675365704F6374E7
:105885004E6F7644656341542B435042533D22533A
:105895004D220D41542B43504D533D22534D222C47
:1058A50022534D222C22534D220D004154533130A9
:1058B5003D39300D415453373D39300D41542B435B
:1058C5004E4D493D332C302C302C310D41542B435A
:1058D5004253543D37312C302C310D41542B43501C
:1058E50042523D41542B435343413F0D41542B43B9
:1058F50053510D41542B435245473F0D41542B43C2
:105905004F50533F0D41542B434D474C3D340D41B2
:10591500542B434D47443D41542644310D004154D9
:105925002653310D002B2B2B004154480D41542B90
:1059350043484C443D310D0041544F0D4154410DF8
:1059450041542A453253534E0D0041542A45325392
:105955004D5352493D313030300D0041542A4532C6
:105965004950533D322C362C322C313032300D001B
:1059750041542B4352433D310D0041542B434C4977
:10598500503D310D0041542B434744434F4E543D48
:10599500312C224950222C220041542A454E4144A3
:1059A5003D312C224750525331222C220041542B99
:1059B5004347455245503D310D0041542A45324932
:1059C50050413D312C310D0041542A453249504F4B
:1059D5003D312C220041542B4347534D533D330D4C
:0159E50000C1
:10372E00C11A410FA0004110B700410F9F00411078
:10373E009F00440FA1000000004110BA0041106C20
:10374E00004110B50041107400410FA9FFC11B418B
:10375E0010A1004110B800C121410FAA004110A0D4
:10376E00004110B3004110B900C120C117C11EC1E4
:10377E0022C123C11D41122500C119C11F410FAB2A
:10378E0000410FA50041106D004110730041109DC6
:10379E000041106B00C19C410FA801410FA64B4187
:1037AE00109E015510750000000000000000000082
:0B37BE00000000000000000000000000
:106D8600FF10FFECFF88FE20FFD8FFC4FC40F88010
:046D9600FFF6FFFB0A
:1037C900411D4600411D4400411D4500421D420066
:0137D90001EE
:10696F00E0FCA3E0FDA3E0FEA3E02401FFE43EFE74
:10697F00E43DFDE43CFC2214F5828E83E0F59BD3CD
:10698F00901D41E0954A901D40E095492275840F76
:10699F00C2CC75840F439C202275840FD2CC758492
:1069AF000F539CDF22E475F001124017FCD3EF95D3
:1069BF00F0EE9C22F583E493FE740193FF901D4249
:0F69CF0022E004F0C3940A22054AE54AAE4922A9
:030023000264BBB9
:1064BB00C0E0C0F0C083C082C0D075D01030993915
:1064CB00C2999009E9E0FEA3E0FF4E602A9009E72C
:1064DB00E0FCA3E0243DF582740D3CF583E0F599D7
:1064EB009009E71269B450119009E9E4F0A3F09018
:1064FB0009E7F0A3F08002D212309853C298900FA4
:10650B0098E0FEA3E02401F582740A3EF583E59939
:10651B00F0C3900F9CE094BC900F9BE09402502F23
:10652B00900F99E004F07006900F98E004F0900F34
:10653B009CE004F07006900F9BE004F0C3900F9961
:10654B00E094BC900F98E094024004E4F0A3F0D0E8
:0A655B00D0D082D083D0F0D0E0321F
:0300A3000266B53D
:1066B500C0E0C0F0C083C082C0D075D01030993919
:1066C500C2999009FFE0FEA3E0FF4E602A9009FD04
:1066D500E0FCA3E024A1F582740D3CF583E0F59977
:1066E5009009FD1269B450119009FFE4F0A3F090F0
:1066F50009FDF0A3F08002D213309843C298900FA1
:106705009AE024BDF582E4340CF583E599F0900F09
:106715009DE0C394805017900F9AE004F0900F9D70
:10672500E004F0900F9AE0C394804002E4F09013E7
:10673500BC12696F9013BC12417F901602E4F0D031
:0A674500D0D082D083D0F0D0E03233
:030013000268F48C
:0B68F400C0E0C083C082C0D075D0108F
:1068FF00758400C2A4C2F8759A40759D0575F80B92
:10690F0075FFA5759B0020FF0575FFA580F8C2FFD9
:10691F00E59BA2E19234759B0020FF0575FFA580D2
:10692F00F8C2FFAF9BD2A4759A7075F80A9009FC54
:10693F00E0C3940A5021E004F09009FBE0FE04F05C
:10694F0074EB2EF582E43409F583EFF09009FBE048
:07695F00C3940A4002E4F0BA
:09696600D0D0D082D083D0E03201
:03002B000259E691
:0D59E600C0E0C0F0C083C082C0D075D00802
:1059F300C2CFE55960021559A23BB3923B50030253
:105A03005B9F055E901D461269D05003025B9F9019
:105A13001D46E4F0435E1075840F9004A9E075F011
:105A230002A42443F582E5F0346D1269C3E0FAA3BE
:105A3300E0FBEE5AFEEF5B4E24FF92A6900776E062
:105A430075F002A42453F582E5F0346DF583E493F5
:105A53005AFE7401935B4E24FF92A79007CBE07527
:105A6300F002A42465F582E5F0346D1269C3A3EE58
:105A73005AFEEF5B4E24FF92C87801AF0BAE0AEFDC
:105A830008800633CE33CE92E0D8F8FF901D42EE65
:105A9300F0A3EFF0A31269D05003025B5EE4F0437E
:105AA3005E20A3E004F0943C4034E4F0900964E009
:105AB3004401F090077FE004F0700690077EE00455
:105AC300F09004ACE004F070069004ABE004F090B6
:105AD30004AD1269D04007E4F0301602D2099007F2
:105AE3005CE0600214F090076912696F9007691215
:105AF300417F900001E004F0900760E004F090071C
:105B030065E004F09004A7E004F0900775E004F06A
:105B1300D208200D0C90096E12696F90096E124124
:105B23007F900972E004F090096CE004F09015FA9C
:105B3300E0600214F09015FBE0600214F09016038D
:105B4300E0600214F09013C4E0600214F09015BBFF
:105B5300E0600214F0901602E004F09015F9E060A2
:105B63000214F0900774E004F07006900773E004E9
:105B7300F0900461E004F090097FE004F0E4FFEFAB
:105B830025E024D4F582E4341CF583E475F0011296
:0C5B930040170FBF08E9901D05E004F06A
:0B5B9F00D0D0D082D083D0F0D0E03214
:0300330002615314
:10615300C0E0C083C082C0D075D008C2FEC2FC209C
:10616300FF03026279C2FFE54B1241C861E201619C
:10617300E20261E20361E80461FA0561FC1161FE78
:1061830012620521620522620523620D24620D2538
:10619300620D26620D27620D28621329622E316279
:1061A3002E32622E33624034622E41622E42622EC0
:1061B30043624944625D45624046622E51622E52FB
:1061C300622E53625D5462405562056162056262EC
:1061D3000563620D64620D6562136600006279E512
:1061E3004D254B804C1269D77002054912698650C0
:1061F300030262770262798044800FE59B30E724D3
:10620300803BE54B540F254D8027759B0002627739
:106213001269D77002054914F5828E83E59BF0124B
:10622300698E4005759B00804D8012E54B540F2508
:106233004DF582E4354CF583E0F59B8037D2B6D239
:10624300AA754B0080301269D7700205491269861E
:106253005024754900754A00801A759BFF054AE56D
:106263004A70020549FF901D3FE0FDC3EF9DE549DC
:0F62730094004002054BD0D0D082D083D0E032CF
:0300730002634FD6
:07634F00C0E0C0D075D018BA
:10635600C2CAC2CFE55D245D602514603014604773
:1063660024F3604C1470030263F824116003026482
:106376000812699C755DA375840175CDA6802112EE
:1063860069A8755DA475840175CDF1801375840FB8
:10639600A2CCB35002D227755DA575840175CD4C8C
:1063A60075CC00D2CA805B202702D229C224805233
:1063B60012699C202C10755DB375840175CDF77537
:1063C600CC9AD2CA803C12699CE4FF0FBF02FC1231
:1063D60069A87F000FBF03FC75840FA2CCB35002DF
:1063E600C22C755DB375840175CDF975CCE1D2CA41
:1063F60080101269A8C22475840175CDF875CCCCBD
:02640600D2CAF8
:05640800D0D0D0E0320D
:1037DA00025A1CE54C1CF500000000000000000025
:1037EA00000000411CF401411D0500C137C13841E8
:0C37FA001D0C00461D063A0A30000D0DA3
:108E9300E55B2528F582E4355AF583E0252AF52A92
:108EA300E43529F529052822E55B2528F582E435F3
:108EB3005AF583E0FF901CF3E02FF0901CF2E034AE
:108EC30000F00528E52822E52890201293FF74E896
:108ED3002528F582E4341CF58322901CE5F0901CD0
:108EE300F07401F0755A1C755BE5229009FAE0FFF6
:108EF300901D02E02FF0901D01E03400F0901CF073
:108F0300E0FF901D04E004F0C322901CE57401F01F
:108F1300901D0DE0901CE6F0F4A3F0E528240590E5
:108F23001CF0F0755A05755B3DE4F528F529F52A23
:108F330022E490045EF0A3F090099174FFF0C20C58
:108F4300E49008E0F022755A1D755B069009F774EA
:108F530006F0E4901D05F022E4901D05F09009FA57
:108F6300E0FF22740F9009F7F0901CF422E4901DA7
:108F730005F0901D04E022E4F528901CF2F0A3F024
:108F830022901D05E0C3940222E4901D04F0A37413
:108F930005F02290045EF0A3E4F0229009FAE09039
:108FA3001CEFF0901CF422901D05E0C39405229061
:108FB3001CF47401F022901CE5F0E4901CF1F02203
:108FC300EFF00528E528229009FAE0FF901D04E060
:0B8FD30022901CF0E0FFE528C39F2265
:1096D900EF1241C8970531970A33970F3597143719
:1096E900971939971E3D972343972845972D4797F3
:1096F900324997374D973C5100009744901CF580AB
:1097090035901CF68030901CF7802B901CF8802631
:10971900901CF98021901CFA801C901CFB801790EA
:109729001CFC8012901CFD800D901CFE8008901C72
:0E973900FF8003901D00E0FF04F0227F00225D
:109C200090045CE054C06012900991E0D39401402C
:0B9C300004128F3E22E4900991F02204
:1096640090045EE0FEEE30E602C322300F02D32205
:109674009009CFE0FD64236004EDF4703BEE549B4D
:10968400FC7D00ECB490117410128F96900044E0AD
:1096940054BFF04404F0801EED7003EC649860073E
:1096A400900044E030E40F7418128F96900044E068
:1096B40054EFF04401F0C322900991E0D3940140A7
:1096C4001274FFF090045E7420F0A3E4F0C20C90D6
:0596D40008E0F0C322D4
:109C3B00303803128F3430370B7F0D129B22128E6C
:0B9C4B00E7129CBA129BCC128FB222D1
:109C5600901D05E0C39403400A901CF4E05410F0F4
:049C6600440EF02296
:10800000901CF4E01241C8807D01811D028189032A
:1080100081C60482E405831D06836E0783CF08842E
:108020004909848D0E80F01181591281891382AD26
:108030001482E415835016836E1784CE1885821936
:1080400085821A85821B84A11E85BB2185E5318628
:108050000332861833860341862D42864A4387368B
:1080600044877E4587984686034787B44887D15121
:1080700086035287FA5380A891000088251299FF41
:1080800040030288259009FAE0FFB44309C2379003
:108090001CF47402F022EF644A6003028825128FF8
:1080A00049901CF47491F022901D05E0C3941E4089
:1080B00003128FB29009F7E060030288251299FF3E
:1080C00040030288259009FAE0B44C15855B82854F
:1080D0005A83743CF09009F77401F01295E712612D
:1080E000259009FAE0644A6003028825128F49222C
:1080F0001299FF50139009FAE0B4430CE4901D0567
:10810000F0901CF47412F022901D05E0C3940F50FF
:1081100003028825901D03E004F00282DD1299FF1E
:1081200040030288259009FAE024BD7003028825E7
:108130002442701E7401128FB9129C2090045C744A
:1081400042F0A3E4F0901D04F0A3F0901CF474033B
:10815000F022901CF4740EF0221299FF4003028367
:1081600073128F5B24FA600F24ED600B24D670032A
:10817000028825243F700FEF128FB9901D04F090F4
:108180001CF47413F0220282DD1299FF4003028373
:1081900073128F706022901CE6E0F4FF9009FAE001
:1081A000FE6F6008901CF4E0240BF022901CE7EEB8
:1081B000F0E4901D040286109009FAE0901CE6F0AD
:1081C000901D040286291299FF4003028373128FC7
:1081D00070FF1424FD5052606714607814607514A9
:1081E000700302826624F624FD400302827424FD9B
:1081F000400302828370030282912417600302828B
:10820000A79009FAE0FEB4FF08D237901D0474105D
:10821000F0902012E493B50608E4901D04F0028269
:10822000A73037030282A780529009FAE0FEF4607B
:1082300002C237EF902012936E606C203769803B4A
:108240003037119009FAE0901CECF0901D04741482
:10825000F00282A7901D04E090201293FF9009FA8B
:10826000E06F60438015E4F528128ECA128FC3B404
:1082700007F7802D9009FAE0F4602C901CF4740E3E
:10828000F08024128FCA540F24E8128ED5EFF080AC
:1082900016E4F528128ED174FFF00528E528B40401
:1082A000F3128F9E7405F0901D040286141299FF3C
:1082B0004003028373128F70C394074007128F9E8E
:1082C0007415F022901D04E0FF04F074E82F128E64
:1082D000D5E0FF9009FAE06F7003028825901CF446
:1082E000741EF0221299FF4003028373128F5BD336
:1082F000948C4008901CF4E02409F022E4901D04C2
:10830000F0901D01F0A3F0901CF4E004F0901CF03C
:10831000EFF06003028825901CF40286141299FF86
:108320004003028373E4901D05F0901CF1E0700E91
:10833000128FCA24B1F582E43404F583EFF0128E73
:10834000EE9F5003028825E4F0901CF47407F0229D
:108350001299FF4002801CE4901D05F0128EEE9FE2
:108360005003028825E4F0901CF47417F02212994F
:10837000FF4003029C56128F5B901D04E024F2F52F
:1083800082E4341CF583EFF0901D04E0FF04F0EF6D
:108390007003028825E4F0A37405F0901CF4E00457
:1083A000128EE6901D01E0F529A3E0F52AE4F528F8
:1083B000128E93E528B40CF8901CF2E06529700445
:1083C000A3E0652A7003028825901CF4028614122B
:1083D0008FAA50030288251288261296645002D272
:1083E00038128F0594035003028825303810901CF2
:1083F000F0E0FF748290045CF0A3EFF08016901D13
:1084000004E0C3940A400D901CF17410F0E4900451
:108410005CF0A3F0203809901CF1E070030288257D
:10842000901CE8E0F4701BA3E0F47016A3E0B4FF26
:1084300011A3E0B4FF0CE4F528128ECA128FC3B466
:1084400008F7901CF47421F022128FAA50030288BE
:1084500025128826128F0594035003028825901C4C
:10846000F1740CF0901CE8E0F4701BA3E0F47016BB
:10847000A3E0B4FF11A3E0B4FF0CE4F528128ECA08
:10848000128FC3B408F7901CF47431F02290045C8E
:10849000E030E107E490045CF0A3F0901CF4028665
:1084A00029901D05E0C394045003028825128F8C87
:1084B000129BCC901D03E004F0C394065003028588
:1084C00078303803128F34901CF1740F8050E49090
:1084D0001D03F0901CE5E024FC700302857F24EB73
:1084E0007003028575241360030288259008E3E079
:1084F0009008E2F0752900F52AE4A3F0901D0DE044
:1085000004F090045EE0FCEC30E222E52A4529709C
:108510001590045EF0A3F0128F8DE4901CF1F090A2
:108520001CF4741BF02290045FE4F0800AEC543FCA
:10853000128F96901D05F0E4F528C3E528952AE4EE
:108540009529501E74C92528F582E43405F583E089
:10855000FF74422528F582E43405F583EFF0052801
:1085600080D890045EE04529F0A3E0452AF0E4902D
:108570001D04028686128F8C901CF47419F022025E
:108580009C3B128FAA5003028825E4901D05F0122F
:108590009CB420370A128F0594035003028825905B
:1085A0001CF4E024E6600D046003028662901CF473
:1085B0007444F022901CF47443F0229009F7E060B8
:1085C000030288257406128EDD128F7A128EABB4E8
:1085D0000DFA9009F7740FF0901CF1E0901CF47004
:1085E0001E7441F0229009F7E06003028825741997
:1085F000128EDD128F7A128EABB40DFA128F667462
:1086000032F0229009F7E06003028825E4901D050E
:10861000F0901CF4E004F022128F845003028825AD
:10862000129CBA129BCC901CF47401F022128F841D
:108630005003028825303705E4FF129B22E4901D89
:108640000DF0901D03F0A304803C9009F7E0600357
:1086500002882590045EE020E73820380CE4901C66
:10866000F1F0901CF47451F0223037030288259009
:108670001D05E0C394325003028825128EE7129C38
:10868000BA901D047401F0A37405F0901CF4741AE0
:10869000F02290045EE0FEA3E0F528E528701FEECE
:1086A00030E20BE4901CF1F0901CF47451F0E49073
:1086B00008E3F09008E2F090045EF0A3F02290044A
:1086C0005EE04440F0A3E0F0A3E0FD90053DF090B3
:1086D00008E2E0240590053EF0AF051296D990051A
:1086E0003FEFF0E4A3F0900460E0FF64316004EF3A
:1086F000B43D047F8080027F00900541EFF0E528C3
:10870000D394874005752887800E90045EE030E2A0
:1087100007900541E04401F0128F0D128FD45005EF
:10872000128E9380F6128EE7E4F528128E93E528D8
:10873000B40CF802876B9009F7E06003028825907B
:10874000045EA3E0F528E528D394874003752887C5
:10875000128F0D128FD45005128E9380F6128EE771
:10876000E4F528128E93E528B40CF8901CF2E52964
:10877000F0A3E52AF0740C128F687445F02290097A
:10878000F7E06003028825755A05755B3D901CF083
:10879000E0128F687446F0229009F7E060030288C7
:1087A00025755A1C755BF29009F77402F0901CF461
:1087B0007447F02220370B128F844069128EE71223
:1087C0009CBA129BCCE4901D05F0901CF47411F03F
:1087D000229009F7E0704E901CE57404F0901D0D96
:1087E000E0901CE6F0F4A3128EE0128F7A128EABAA
:1087F000B40DFA128F667452F0223037077F0D12D3
:108800009B228005128F84401C129CBA129BCC12B2
:108810008FB2901D0CE030E00C9004AA74C1F0E41B
:05882000F58443EF1098
:0A88250022E4901D05F0129CB4221D
:10380600420F950000420F980000420F9B000042B5
:1038160009E700004209E90000410F9700410F9AAD
:1038260000410F9D004209FD00004209FF000041D2
:1038360009F9004109FB004109FC004109F5004175
:0538460009F700C13C80
:109A3F00900F95E0FEA3E02401F582740A3EF583B2
:109A4F00E022855B82855A837443F09009F7740195
:109A5F00F022900F9CE024FFF0900F9BE034FFF07A
:0B9A6F0022FFE475F00112402DFC22E4
:039CC000D212229B
:039CC300D2132297
:1098FC00800FC39009EAE094649009E9E094004079
:10990C000575FFA580ECC2AC30120DC212E4F584D3
:10991C009009F6E0F59980179009F6E09009E912A4
:10992C009A70743D25F0F582740D3CF583EFF0D2FE
:02993C00AC225B
:06993E008B298A2A892B07
:10994400126D718E2C8F2DE4F52EF52FC3E52F9516
:109954002DE52E952C5023AB29AA2AA92B852F82DD
:10996400852E83123EE69009F6F01298FC052FE549
:0A9974002F7002052E75FFA580D2AA
:01997E0022C6
:10997F0075FFA5C3900A00E094F49009FFE09401ED
:10998F0050F153E7BF30130DC2137584019009F8DE
:10999F00E0F59980179009F8E09009FF129A70741A
:1099AF00A125F0F582740D3CF583EFF043E74022DB
:0699BF008B318A3289336E
:1099C500126D71AE07E4F534F535EEFDC3E5359D51
:1099D500E53494005023AB31AA32A933853582850D
:1099E5003483123EE69009F8F012997F0535E53586
:0999F5007002053475FFA580D154
:0199FE002246
:109AB400E4FFC2AC900F9BE07002A3E06028129A0E
:109AC4003FFF900F96E004F07006900F95E004F0CD
:109AD400129A61C3900F96E094BC900F95E09402A3
:089AE4004004E4F0A3F0D2AC51
:019AEC002257
:109A7A00C2AC900F9BE07002A3E0602A129A3F905A
:109A8A001B0DF0129A61D2AC900F95E475F0011299
:109A9A004017FEC3E5F094BCEE94024007E4900F31
:0A9AAA0095F0A3F0D322D2ACC32242
:109AED00E4FF53E7BF900F9DE06026900F97E024B1
:109AFD00BDF582E4340CF583E0FF900F97E004F0A0
:109B0D00900F9DE014F0900F97E0C394804002E415
:049B1D00F043E740EA
:019B21002221
:109B6A00900F9BE07002A3E06017C2ACE4900F9BD9
:109B7A00F0A3F0900F95F0A3F0900F98F0A3F0D215
:029B8A00AC220B
:109B470053E7BF7E007F807D007B017A0C79BD12D1
:109B57004337E4900F9DF0900F97F0900F9AF043E2
:039B6700E74022B2
:109B8C0020B60575FFA580F853E6FEC2AAC2A4E470
:109B9C00F584C2F8759A40759D0575F80B75FFA58F
:019BAC002296
:109C8D00D2A4E4F584759A7075F80AD2AA43E60158
:019C9D0022A4
:109B2200129B8C759BC420F90575FFA580F88F9B4D
:109B320020F90575FFA580F8E59A30E70575FFA5C0
:059B420080F6029C8D7D
:1095E7009009F7E06076129B8C759B4020FF05750C
:1095F700FFA580F8C2FFAF9BE4F59B20FF0575FF31
:10960700A580F8C2FFD2A475FFA5C2A4EF30E6D9A2
:10961700303C047E8080027E828E9B20FF0575FF92
:10962700A580F8C2FF9009F5E0FE04F0E55B2EF592
:1096370082E4355AF583E0F59B20FF0575FFA58089
:10964700F8C2FF129C8D9009F7E0FE9009F5E0C380
:0C9657009E4009E49009F7F09009F5F03E
:0196630022E4
:1099FF00C23553E6FEC2AA9009FCE0602B9009F92C
:109A0F00E024EBF582E43409F583E09009FAF09055
:109A1F0009F9E004F09009FCE014F09009F9E0C3B3
:0F9A2F00940A4002E4F0D235D2AA43E601A235F0
:019A3E002205
:109BCC009009FCE0601753E6FEC2AAE49009FCF091
:0E9BDC009009F9F09009FBF0D2AA43E60122AD
:069CB400C23C129A51228D
:069CBA00D23C129A512277
:10384B00C129C127411D3100411D277FC128C1243A
:08385B00411D3201411D28004E
:10987100901D32F0E4F55DD228901D3522F0901D47
:1098810027747FF09008F07407F0A374FFF022E0D2
:10989100FF901D25E02429F582E4341DF583EFF0C6
:1098A1002275840FD2CC75840F539CDF22901D2822
:0798B100E0131313541F2202
:109C6A00C229901D3374FFF0A312987E75840FD217
:029C7A00CC22FA
:0598B800901D36E0FFE9
:1098BD00E4FEEF139225A200302501B3922AA201F6
:1098CD009200A2029201A203302A01B39202A204D5
:1098DD00302A01B39203A2059204A2069205A207B3
:0E98ED009206A22A9207EFC313FF0EBE08C414
:0198FB00224A
:109341003024030293FCE55D607B24F8505A7003DE
:109351000293DE24E770030293F01470030293FA80
:10936100247D602724F4602524FE601F24126003FD
:109371000293FCD224C229C2271298A2755DA2755C
:10938100840175CDF975CCFFD2CA228014D2241282
:1093910098A2755DB275840175CDFD75CC99D2CA5F
:1093A10022901D26E0F55D22901D36E0302C05440B
:1093B10080F08003547FF0901D36E0C313F0901DC0
:1093C10035E0C313F0901D35E030E004D22C80026B
:1093D100C22CE55D04901D26F0755DB122901D360D
:1093E100E0302C054480F08003547FF0C2282290A5
:0C93F1001D267422F0755DA122C2282206
:10882F00901D32E01241C888A00188A80288B003C9
:10883F0088B90488B90588BC0688CA1188DD2188E3
:10884F00E52288EC2388F831890032891241891C8E
:10885F0042892843893444893F45894F46895F4778
:10886F00895F48895F49895F4A895F4B895F4C8976
:10887F006A4D897B6189DF7189DF8189E69089F88B
:10888F00918A04928A10938A1F948A3D9500008AD8
:10889F0081901D3274020289FD901D32740302898A
:1088AF00217404129871744EF022028962741112AD
:1088BF009871747FF0E4900972F022900972E0C30E
:1088CF0094055003028A87901D327421F022901D67
:1088DF003274220289FD901D3274238035901D322F
:1088EF0074311298747444F022901D327432028ADB
:1088FF001C901D36E0901D32B4FF047441F02274B9
:10890F0031F022C229901D3274420289FD901D322E
:10891F00744312987474CCF022901D3274441298E0
:10892F007474BEF022E4F520901D327445028A1C47
:10893F001298B8E0901D33F0901D327446028A1CD5
:10894F001298B8E0901D34F0901D327447028A1CC3
:10895F001298B8901D32E004028A1C901D36E06513
:10896F00206002D229901D327461F02230291E90AE
:10897F001D31E004F0E0C394034004E412987E122A
:10898F0098AE30E0047F9080417F81803D901D3410
:10899F00E0B4050C901D33E0B4500512987F801E93
:1089AF00901D34E0FBC454F0FE901D33E0FDC45421
:1089BF000F4E901D27F09008F0EBF0A3EDF01298FA
:1089CF00AE30E0047F9080027F71901D32EFF02275
:1089DF00901D3274018017901D28E054F7F0E05479
:1089EF00DFF0E054F8F0028A6C901D327492F0754B
:1089FF005D21D22822901D3274931298747433F033
:108A0F0022E4F520901D25F0901D327494F080170C
:108A1F001298B8129890901D25E004F0C394074067
:108A2F0006901D327495F012987574FFF022901D08
:108A3F0036129890E5206F602B901D28E0FF54F8B8
:108A4F00FEEF045407FD4EF0EDC39405400FE044D4
:108A5F0020F0E04410F0901D327481F022901D320E
:108A6F007491F022901D28E04410F0901D32747123
:098A7F00F022901D327401F02276
:106CA500485454502F312E3120313030004854543F
:106CB500502F312E312032307800436F6E74656E5F
:106CC500742D4C656E6774683A2000446174653AAA
:086CD50020004B4F443823005E
:10386300421B050000411B1101411B1301411B09B0
:1038730001015E00411B0C00421B0A0000411B03B7
:1038830000411B1000411B1200411B0400411A6E32
:013893000034
:10660D00436F6E74656E742D547970653A206170A8
:10661D00706C69636174696F6E2F782D7777772D44
:10662D00666F726D2D75726C656E636F6465640D4A
:10663D000A00486F73743A20233A230D0A00436F02
:10664D006E74656E742D4C656E6774683A20230DFB
:10665D000A000D0A0053696D49643D232600426905
:10666D006E3D23260054696D657374616D703D2315
:10667D000053696D49643D00260054696D6573745E
:10668D00616D703D00FF660D3100FF663F0B00FF31
:10669D00664B1300FF665F0200FF66620800FF662F
:0866AD006B0600FF66720B0092
:083894004116CD014116CC00E4
:106B580054696D650042696E205374617274004215
:106B6800696E20456E64000D00303030300D0074C1
:106B7800696D650D0062696E20616C6C0D0062695B
:106B88006E2072657365740D0042696E3D002600C3
:0F6B9800FF1B094E4F20434152524945520D00F9
:10389C004113BB014115FA004115FB004116030011
:1038AC004113C4004115BB004413C0000000004488
:1038BC0013BC000000004115B9004115F40041167D
:1038CC0001004115F8004115F5004215F6000061A4
:1038DC00F413C50000000000000000000000000010
:1038EC0000000000000000000000000000000000CC
:1038FC0000000000000000000000000000000000BC
:10390C0000000000000000000000000000000000AB
:10391C00000000000000000000000000000000009B
:10392C00000000000000000000000000000000008B
:10393C00000000000000000000000000000000007B
:10394C00000000000000000000000000000000006B
:10395C00000000000000000000000000000000005B
:10396C00000000000000000000000000000000004B
:10397C00000000000000000000000000000000003B
:10398C00000000000000000000000000000000002B
:10399C00000000000000000000000000000000001B
:1039AC00000000000000000000000000000000000B
:1039BC0000000000000000000000000000000000FB
:1039CC0000000000000000000000000000000000EB
:1039DC0000000000000000000000000000000000DB
:1039EC0000000000000000000000000000000000CB
:1039FC0000000000000000000000000000000000BB
:103A0C0000000000000000000000000000000000AA
:103A1C00000000000000000000000000000000009A
:103A2C00000000000000000000000000000000008A
:103A3C00000000000000000000000000000000007A
:103A4C00000000000000000000000000000000006A
:103A5C00000000000000000000000000000000005A
:103A6C00000000000000000000000000000000004A
:103A7C00000000000000000000000000000000003A
:103A8C00000000000000000000000000000000002A
:103A9C00000000000000000000000000000000001A
:103AAC00000000000000000000000000000000000A
:103ABC0000000000000000000000000000000000FA
:103ACC0000000000000000C13D025600000158003B
:103ADC004413B0000000004113B4004113B5004181
:0C3AEC0013B7004113B8004213B90000EA
:1097B1009015FCE0FBA3E0FAA3E022E49015F6F09B
:1097C100A3F022852A32852B33852C34753500751B
:1097D10036077BFF22C2B49015F4E054FDF0E0544B
:1097E100FBF022EBF0A3EAF0A3E9F0229013B874A6
:1097F10008F0227FF47B017A1379C5229015F3E0FA
:1098010004F0C3940B22AF58E4FCFDFE9013B02288
:07981100AB2EAA2FA93022A3
:039CC600C2B42203
:108A88009013BBE024F07003028B1224F0700302F1
:108A98008B2124FE7003028B7B24F27003028BA4CB
:108AA800147003028C5B147003028C67243160031A
:108AB800028C819015F4E030E3259009F6743EF0BD
:108AC8001298FC129B6A129B47E49015F3F0A3E0FE
:108AD80030E0047F3080027F209013BBEFF02290BB
:108AE80015F4E030E003028C879015FAE060030289
:108AF8008C87128C94901BC4EFF064046003028C82
:108B0800879020D8939015FAF0229015F9E0600329
:108B1800028C879013BB04F022900F9BE07002A395
:108B2800E06039129AB49009F8EFF09015F3E090EC
:108B38006B9B93B507081297FD401C028C6A7F0057
:108B48009015F3EFF0906B9B93FF9009F8E0B50751
:108B5800069015F37401F012997F80BD75FFA590FA
:108B68000F9DE06005128C8880F520B703028C8782
:108B7800028C6A1297D6E054F7F0129B6A9020D8BC
:108B8800E4939015FAF09020D9E4939015FBF090B7
:108B980015F9740AF09013BB7410F022900F9BE043
:108BA8007002A3E060799015F4E020E21AD2B4E4F0
:108BB8009009FFF0A3F09009FDF0A3F09015F3F0F1
:108BC8009013BB7431F022755978129AB49015F34A
:108BD800E0906B9B93B507081297FD4017028C6ACB
:108BE8007E009015F3EEF0906B9B93B507069015F9
:108BF800F37401F0C3900A00E094F39009FFE09445
:108C0800015015E475F00112402DFC74A125F0F512
:108C180082740D3CF583EFF09015F4E04402F030D7
:108C2800B702803E9015F4E030E11DE55970509090
:108C380009FDF0A304F0900DA1E09009F8F0129955
:108C48007F9013BB7432F022900F9DE06031128C3C
:108C58008880F53013299015F4E04404F08013302F
:108C6800B7079013BB7422F0223013131297D61251
:0F8C78009B479013BB7430F0229013BB7401F034
:0D8C870022129AED9009F6EFF01298FC22EF
:0691A1008B2A8A2B892CA9
:1091A7008B328A3389347535007536047BFF7A6BC9
:1091B70079581269DEEF7005C23D7F01221297C40C
:1091C7007A6B795D1269DEEF7005D23D7F1022124E
:1091D70097C47A6B79671269DEEF7016F5589013AA
:1091E700B012418B00000000E4F556F557C23D7FF1
:1091F7002022203D0302927FAB2AAA2BA92C126DB5
:10920700718E2D8F2EE557252EFFE556352DFEC382
:10921700EF94F4EE9401401012980712417FE4F5A1
:1092270058F556F5577F40220558129807E0F8A3DE
:10923700E0F9A3E0FAA3E0FBC312416E503A74C50C
:109247002557F974133556A801FC7D01AB2AAA2BC3
:10925700A92C12431AE52E2557F557E52D3556F556
:1092670056FE74C52557F58274133EF583740DF0C9
:0A9277000557E557700205567F0009
:0192810022CA
:10954E009013B4E014602E14607924026003029527
:10955E00E0EF640D6003BF0A02C3227B017A167925
:10956E00049015FC1297E4EF123F469015FFE4F0BD
:10957E00A304F0805EEF640D6003BF0A181297B16A
:10958E00F9A3E0FEA3E0F5828E83E4123F58E49047
:10959E0013B4F0D3221297B1F9A3E0FCA3E0F58245
:1095AE008C83EF123F589015FFE475F001124017AF
:1095BE00FCC3E5F094C8EC940040069013B474021A
:1095CE00F0C322EF640D6003BF0A05E49013B4F0FC
:0895DE00C322E49013B4F0C3B2
:0195E6002262
:109818009013B5E01460110470489013C4EDF01271
:1098280097BC9013B5E004F09013C4E0700890154D
:10983800F6F0A37404F09015F6E0FCA3E0FDEC5EEE
:10984800FEED5F4E6008E49013B5F0AF0522901569
:10985800F6E07002A3E060031297BC9015F6A3E04F
:08986800FF22E49013B5F0FFAC
:0198700022D5
:0A94B2008B2A8A2B892C8C2D8D2E1D
:1094BC009013B7E014601414603324027076E490B7
:1094CC0013B6F01297BD9013B704F0129B477BFFB5
:1094DC007A6B796F1299BFAB2AAA2BA92C1299BF60
:1094EC009013B77402F0901603E52F804D9016037D
:1094FC00E0701A9013B6E004F0C395305006A374D4
:10950C0001F080099015F6E4F0A37404F09015F6C0
:10951C00E0FEA3E0FFE52D5EFCE52E5F4C6006E46B
:10952C009013B7F0229015F6E07002A3E0600C12D5
:10953C0097BC80071297BC9013B7F09015F6A3E078
:01954C00FF1F
:01954D0022FB
:108C9400E4901BC6F0A3F0901BC6F0A3F0900F9DC8
:108CA400E0FFC3901BC7E09F901BC6E094005038C0
:108CB400129AED8F2912954E501B9015F6E0700212
:108CC400A3E070241297B1F91291A19015F6E4F083
:088CD400A3EFF0801375FFA56A
:108CDC00901BC7E004F070BD901BC6E004F080B59B
:108CEC009013B8E0B40A004003028E61908CFFF838
:108CFC00282873028D1D028D43028D6D028D760224
:108D0C008DA5028DD1028E00028E61028E4A028EDA
:108D1C004C7BFF7A6B7971752F027530027D0412D2
:108D2C008E8330E20F0E7D001297F41243379013AE
:108D3C00B87401F07F00227A6B7977128E6930E07B
:108D4C000B9015F87401F09013B804F09013BAE07E
:108D5C0030E20B9015F87402F0E49013B8F07F0039
:108D6C00229013B87403F07F00227BFF7A6B797D1D
:108D7C00752F027530057D34128E8330E406901306
:108D8C00B87404F09013BAE0542460069013B874CD
:108D9C0005F0E4901602F0FF227DC87F607E001281
:108DAC0098187E009013B9EEF0A3EFF054606006B3
:108DBC009013B87405F0901602E0D394144003128B
:058DCC0097ED7F00227D
:108DD1001297F6126D71901BC5EFF0600E9015BBE6
:108DE10074FFF09013B87406F080031297ED90139E
:0C8DF100BAE0546460069015F57401F0BF
:108DFD007F0022901601E06401702EF09015F5F0C1
:108E0D007E01FD1297F41243379013B9A3E0FF30A2
:108E1D00E5069013B87409F0EF30E6069013B874B8
:108E2D0003F0EF30E2031297ED901601E06402605B
:108E3D00069015BBE070031297ED7F0122800A7A30
:108E4D006B7986128E6930E208E49013B8F07F04D6
:0B8E5D00227F0022E49013B8F07F0297
:108E6800227BFF752F027530027D057C001294B2BB
:108E78007E009013B9EEF0A3EFF0227C001294B2BA
:0B8E88007E009013B9EEF0A3EFF02283
:069282008B2E8A2F8930BB
:10928800901BE5E4F0A3F0A3F0F9A3C9F0A3F0A3C1
:10929800E9F0E4901BECF0A3F0901BECE0FEA3E0F7
:1092A80024C5F974133EFA7B01901BE51297E47DFF
:1092B8000D125FD8901BE81297E44A4B607A901B16
:1092C800E5A3A3E0FFA3A3A3E0C39FA3F060697590
:1092D80034FF75356B753691129811126AAB901B75
:1092E800E51297B48B348A35F536901BEBE0753769
:1092F80000F53812981112686B7534FF75356B7567
:109308003696129811126AAB901BEBE0FF901BED9A
:10931800E02FF0901BECE03400F0A3E004F07006BE
:10932800901BECE004F075FFA5901BE81297B4F9C8
:08933800EA494B60030292A117
:01934000220A
:10600000C05F7460C0E0C082C083755F0A75B10074
:1060100022C05F7460C0E0C082C083755F1B75B131
:106020001122C05F7460C0E0C082C083755F2C75B0
:10603000B12222C05F7460C0E0C082C083755F3D42
:0460400075B13322E1
:0C5FF400EF240A83906000730A1B2C3D10
:0300000002674F45
:0F674F00787FE4F6D8FD75815F12601B026799B1
:103AF900EC4D6011E8497017ED33EC3304600DE4C7
:103B0900FCFFFEFD22E933E8330470F8023DC212DE
:103B19003D8D58046009E4CC2481500628500902DF
:103B29003DCC284003023DC9C0E0EB4A7044B9804E
:103B390006D0E0FB023DB8EF4E701CBD8008EBFFDC
:103B4900EAFEE9FD80EBE98DF0A4FEE5F0023BE237
:103B5900E9CDF9EAFEEBFFEF89F0A4FCE5F0CE89A7
:103B6900F0A42EFFE435F0CD89F0A42DFEE435F064
:103B79008067EF4E7005BD80D780C3EF8BF0A4AC92
:103B8900F0EE8BF0A42CFCE435F0F8EF8AF0A42CCD
:103B9900E5F038FCE433CB8DF0A42CFCE5F03BF8E0
:103BA900EE8AF0A42CFCE5F038F8E433CF89F0A4D0
:103BB9002CFCE5F038CF3400CE89F0A42FFFE5F0D6
:103BC9003EFEE433C98DF0A42EFEE5F039CD8AF02E
:103BD900A42FFFE5F03EFEE43DFD33D0E0FB5007A6
:103BE9000BBB000F023DCCEC2CFCEF33FFEE33FE98
:063BF900ED33FD023DA4C6
:103BFF00023DCCEC5D046005E859047003023DC240
:103C0F00123D8D580460F6EC4860F2EC7004FDFE36
:103C1F00FF22C860DB2481C85009C3986002500698
:103C2F00023DC99850CAF582E9294B4A7005AB820B
:103C3F00023DB875F0007C1A7880C3EF9BEE9AEDC9
:103C4F0099400DC3EF9BFFEE9AFEED99FDE842F010
:103C5F00DC23ACF0D0E0FFD0E0FED0E0FDAB822063
:103C6F00E7101BEB60BAEC2CFCEF33FFEE33FEEDED
:103C7F0033FD023DA4E803F830E705C0F075F0000E
:103C8F00EF2FFFEE33FEED33FD40B830E7C280AAD1
:103C9F0074F8CC6480CCC86480C8F58204604FC3CC
:103CAF00EB9FF5F0EA9E42F0E99D42F0E89C45F06B
:103CBF00603C501DE5825FFFE582D313CB5BCBF4F5
:103CCF002B5582FB50280ABA002409B9002008801E
:103CDF001DE5825BFBE582D313CF5FCFF4C3132FB8
:103CEF005582FF50090EBE00050DBD00010CC3EB40
:103CFF009FF5F0EA9E42F0E99D42F0E89C45F060A6
:093D0F0007CC4820E701B3EC22C7
:103D180075F020800E75F010800575F0087D007E26
:103D2800007F003392D530D503124160EC33401048
:103D3800EF33FFEE33FEED33FDEC33FCD5F0ED222F
:0E3D4800E5F0247EA2D513CC92E7CDCEFF226B
:103D5600EDD2E7CD33EC3392D524814006E4FFFE65
:103D6600FDFC22FCE4CFCECDCC24E0501174FF80C4
:103D7600EDC3CC13CCCD13CDCE13CECF13CF047061
:073D8600F030D5DE024160C0
:103D8D00E9D2E7C933E833F892D5EDD2E7CD33EC7C
:073D9D0033FC5002B2D522F5
:103DA400EC30E7100FBF000C0EBE00080DBD000480
:103DB4000BEB6014A2D5EB13FCED92E7FD2274FF2C
:103DC400FCFDFEFF22E480F8A2D574FF13FC7D8085
:033DD400E480EF99
:10675E00022800E493A3F8E493A34003F68001F229
:10676E0008DFF48029E493A3F85407240CC8C3333C
:10677E00C4540F4420C8834004F456800146F6DF0B
:10678E00E4800B0102040810204080903221E47E48
:10679E00019360BCA3FF543F30E509541FFEE49300
:1067AE00A360010ECF54C025E060A840B8E493A3C7
:1067BE00FAE493A3F8E493A3C8C582C8CAC583CAF2
:1067CE00F0A3C8C582C8CAC583CADFE9DEE780BEAA
:013AF80000CD
:103DD700E709F608DFFA8046E709F208DFFA803ECE
:103DE70088828C83E709F0A3DFFA8032E309F608BB
:103DF700DFFA8078E309F208DFFA807088828C8323
:103E0700E309F0A3DFFA806489828A83E0A3F608D6
:103E1700DFFA805889828A83E0A3F208DFFA804CB0
:103E270080D280FA80C680D4806980F28033801087
:103E370080A680EA809A80A880DA80E280CA8033F0
:103E470089828A83ECFAE493A3C8C582C8CCC58368
:103E5700CCF0A3C8C582C8CCC583CCDFE9DEE78038
:103E67000D89828A83E493A3F608DFF9ECFAA9F0B7
:103E7700EDFB2289828A83ECFAE0A3C8C582C8CC0D
:103E8700C583CCF0A3C8C582C8CCC583CCDFEADE26
:103E9700E880DB89828A83E493A3F208DFF980CC88
:103EA70088F0EF60010E4E60C388F0ED2402B40481
:103EB7000050B9F582EB2402B4040050AF23234528
:063EC7008223903E2773E8
:103ECD00BB010689828A83E0225002E722BBFE02F3
:093EDD00E32289828A83E4932226
:103EE600BB010CE58229F582E5833AF583E0225091
