:10604400909BAD011190E223012290DEAC012290DD
:10605400D38C012290E63D012290A863012290C4D2
:1060640043012290C02F012290BAC1012290BDDACF
:10607400012290D14F012290A207012290D65F0104
:106084002290D48D0122909341011190882F011107
:106094009098BD01119089BD0133909CC00111906D
:1060A4009CC30111909CC6011190EBC4012290E1A4
:1060B400CA012290E60901229090C00111909C6AC5
:1060C4000111908D5C013390E59C01229095E701CC
:1060D40011909C7C0111908FDE011190EB1601222E
:1060E40090CC7501229080000133908A8801119030
:1060F400EC0201229093FD011190E2D201229080E2
:10610400000111908D3401339098FC0111909B6A29
:106114000111909AB40111908D060133908C5401B1
:106124003390D5800122909B22011190DE2401221C
:1061340090DD910122909A7A011190C25901229026
:0F614400993E011190DA440122909282011100DC
:106D4300FFFF0000AAAA8888F00FC003FFFEFFFA26
:106D5300FFFFAAAACCCCF0F00000FFFEFFFAFFEA87
:0E6D6300F00FFFFF0000FF7FFEBFFB6F000080
:10322100C113C112410972004108E10042077E0049
:10323100004204AB000041075C00608008E400002C
:10324100000000000000000000000000000000007D
:10325100000000000000000000000000000000006D
:10326100000000000000000000000000000000005D
:10327100000000000000000000000000000000004D
:10328100000000000000000000000000000000003D
:10329100000000000000000000000000000000002D
:1032A100000000000000000000000000000000001D
:1032B10000000000000000000000000000004108C4
:1032C100E000C10C420788FFFF023F005C0243009F
:1032D100D744096E00000000C108480964000000DD
:1032E10000000000004807CC0000000000000000C2
:1032F10048098900000000000000004809DB0000C7
:1033010000000000000042076D00004809C70000EE
:1033110000000000000048097500000000000000E6
:103321000041096D0041097E0041099200024700F8
:103331005B023B08E40241078B62A504B100000077
:10334100000000000000000000000000000000007C
:10335100000000000000000000000000000000006C
:10336100000000000000000000000000000000005C
:10337100000000000000000000000000000000004C
:1035E100000045045C00000800004104A8004208F6
:1035F100E200004204AF0000C18F41097D00C18D8E
:10360100C114C109C11041099100C10E4109CF0086
:10361100C19544076900000000C10AC111C11641EA
:1036210007660041076F004100440041078A0041DD
:1036310004ADFE4104A902410776004107CB0042D7
:08364100075E00004104AE1910
:104B720074802EF582E43409F583E0FF9004A8E006
:104B8200FE04F074422EF582E43405F5832290008F
:104B920053E0FCA3E0FDA3E0FEA3E0FF90004B1274
:104BA200417F900057E0FCA3E0FDA3E0FEA3E0FFFD
:104BB20022900989E0F8A3E0F9A3E0FAA3E022E554
:104BC2003C2FF582E4353BF583E0FE9004A8E0FD3E
:104BD20004F0E52A2DF582E43529F583EEF02290E2
:104BE2000000E0FF04F074B12FF582E43404F58391
:104BF200E0FF22F583E0FF9004A8E0FE04F0E54622
:104C02002EF582E43545F583EFF0900770E004F06D
:104C120022900000E0FE04F0745C2EF582E4340081
:104C2200F583E022E5442404F582E43543F583E08C
:104C3200FCA3E0FDA3E0FEA3E0FF22E490045CF00D
:104C4200A3F09004A8E0FF90045EE044A4F0A3E087
:104C520022901D3AE0901D38C413135403FD7C00CA
:104C6200E0C313FEA3E013FFEE540F2290077CA3D0
:104C7200E09004A8F09009D5E0FFA3E090045ECF95
:104C8200F0A3EFF09004637C087DE2E0FFA3E08CE8
:104C92003D8D3E8D828C83CFF0A3EFF022FBEF4B54
:104CA200FFEE4AFEED49FDEC48FC02417F9004A86C
:104CB200E0FD90077CE4F0A3EDF09009D5EEF0A3BF
:104CC200EFF07E087FE28E3D8F3E8F828E83E0FF83
:104CD200A3E0900463CFF0A3EFF0853E82853D838D
:104CE200E4F0A3F0A20C920E22E4FFFE7C419007B6
:104CF20056E0F8A3E0F9A3E0FAA3E0FB22540FFE8A
:104D0200EF25E0FFEE33901D384CFEEF4DFFEEF045
:104D1200A3EFF022900770E0FFC322900000E0248E
:104D22005BF582E43400F583EFF022FBEF4BFFEEFC
:104D32004AFEED49FDEC48FC02417F75FFA5E49077
:104D4200045CF0A3F022745C2FF58274003EF583BC
:104D5200E0FF901BC5E02FF0901BC4E0340022EB73
:104D62004FFFEA4EFEE94DFDE84CFC02417FEFF0B9
:104D72009004A8E0FF04F074422F2290045FE4F054
:104D82009004A8E0FF90045EE02214F5828C83EF89
:104D9200F00528E52822900002E0FFA3E0900045FC
:104DA200CFF0A3EFF0229004AEE0FF900000E06F9E
:104DB200FF9000DBE06F22F0900000E004F022851B
:104DC2002982852883E0FEA3E0FF901BC4E06E22C7
:104DD200900049FFEE4CFEEF4DFFEEF0A3EFF02204
:104DE2009009D0E0FF900770E0FEC39F227B017A1A
:104DF200057942225FFFEA5EFEE95DFDE85C22F58D
:104E020083EFF00528E52822E0FCA3E0FDECC313C4
:104E1200FEED13FFEC54E0FCED5401FDEF22D21144
:104E2200AA43A9447B0178297C007D007E007F088B
:104E3200023EA79004A8E0FF04F0E5462FF582E4C5
:104E42003545F5832290075AE0FEA3E0FFE4FCFD1E
:104E52007B807A3A7909F802404354013333335460
:104E6200F8FF9007CCE054F74FF0900995E02290BC
:104E7200076DE475F00112402DFC74DC25F0F5821B
:104E820074073C229004A8E0C394872274C0F0E423
:104E9200900770F02285488285478322EB2FFFEA34
:104EA2003EFEE93DFDE83CFC02417FFF901BC5E070
:104EB2002FF0901BC4E03400F00528E528225401AD
:104EC200C454F0FF9007CCE054EF4FF0900997E004
:104ED2002274E42FF582E43408F58322FBEF5BFFB2
:104EE200EE5AFEED59FDEC58FC4D4E4F229000005B
:104EF200E024DDF582E43400F583EFF0FF22E528BB
:104F020075F00CA424B1F9740435F0FA7B01221374
:104F120013540175F003A4FF22FBEF5BFFEE5AFE70
:104F2200ED59FDEC58FC02417FFBEF4BFFEE4AFED0
:104F3200ED49FDEC48FC02417F90045EE0FEA3E0F7
:104F4200FFEE229000DCE0FEA3E0FDEDFF901BC42B
:104F5200E06E22900545EFF0900460743FF02274F9
:104F620001F0A3747FF0223395E0FCD3ED9FEE6451
:104F720080F8EC64809822EB4FFFEA4EFEE94DFD8B
:104F8200E84CFC02417F74042FF582E43400F5837F
:104F920022748B2FF582E43407F58322901BC6E03E
:104FA200FEA3E0FFC39402EE940122E5442FF582B2
:104FB200E435432290099DE0FEA3E0FF22753B0009
:104FC200753C5C22FF900000E02F220546E546ACCE
:104FD2004522126D1090006122EFF00528E528228B
:104FE20075FFA543B701C2AF438F032278297C0026
:104FF200FDFE7F08023EA7900766E0900066F00281
:105002006A65E4901BC4F0A3F0A3F0A3F0226FFF43
:10501200EA6EFEE96DFDE86CFC22745C2FF5827489
:10502200003EF5832290045EF0A3E4F0229008E0B3
:10503200F09004AFF0A3F022F07541007542042213
:1050420090045EE04418F0A3E0F022746E2FF58223
:10505200E43400F5832290075EA3E0FF2290045E11
:10506200E04498F0A3E022E4900000F0900770F092
:1050720022901D3702417F9000007401F022754595
:105082000775465AE4F5282274802528F582E4340F
:10509200072274532528F582E434002274D425288B
:1050A200F582E434072274932528F582E434092238
:1050B2007D047C017F0022E49004A8F0900460E06B
:0B50C20022900542F0A374CEF0A32260
:105EF60012505830E2089004A97407F08023EF305E
:105F0600E1089004A97406F08017300D07EF5401DC
:105F16004402800990075EA3E0540144049004A95A
:105F2600F090075EE0FEEE30E75A30E04F30E24494
:105F360030E3395470FEE48EF01241EE5F521000E9
:105F46005F5A20005F62300000005F6A9007767437
:105F560005F080449007767406F0803C90077674CE
:105F660007F080349007767404F0802C90077674DE
:105F760003F080249007767402F0801C90077674F4
:105F860008F0801490075EE030E008900776740110
:105F9600F08005E4900776F012505854F0700590A2
:105FA60007CBF022EF30E4079007CB7402F0221201
:105FB600505830E7079007CB7405F022EF30E5071D
:105FC6009007CB7403F022EF30E6069007CB7404FB
:025FD600F022B7
:046CDD008E308F3135
:106CE10075FFA5E4FFFEC3EF9DEE9C501E0531E547
:106CF10031AA307002053014F5828A83E493FB12C5
:0E6D0100501CEBF00FBF00010E80DB75FFA5EC
:016D0F002261
:086B03008E308F318C328D338E
:106B0B0075840F43A101E4F584124FE28531828530
:106B1B003083F0538FFD75FFA5FFFEC3EF9533EE6A
:106B2B009532501D12501CE0FD0531E531AA307035
:106B3B0002053014F5828A83EDF00FBF00010E8041
:0C6B4B00DA75FFA5538FFED2AF53B7FEE2
:016B5700221B
:106D1000E4FFFDFCF584438F04EFC3948050200D05
:106D2000EDAA0470010C14F5828A83E493FEAB078C
:106D30000F745C2BF582E43400F583EEF080DA53B7
:026D40008FFBC7
:016D4200222E
:106A4D00EF54079010BBF0126D109000647453F06A
:086A5D009010BBE0900065F011
:106A6500E4F9FFFE75840F43A101F584438F0412F9
:106A75004FE2F582F583F0538FFD75FFA5E9C394C9
:106A850080501AAD0109745C2D124C1DFD0FEFAA43
:106A95000670010E14F5828A83EDF080E0538FFABB
:056AA500D2AF53B7FE63
:016AAA0022C9
:1067DE00300F08752906752A4C8006752905752A0D
:1067EE0042E4FF124BC10FBF04F990005BE0FE3094
:1067FE00E0217F04E53C2FF582E4353BF583E0FD97
:10680E009004A8E0FC04F0E52A2CF582E43529F585
:10681E0083EDF0EE30E1057F05124BC190005BE099
:10682E0030E2097F06124BC10FBF0AF990005BE000
:10683E0030E3097F0A124BC10FBF0EF990005BE0E7
:10684E0030E4097F0E124BC10FBF44F990005BE09C
:0C685E0030E5097F44124BC10FBF7AF9EE
:01686A00220B
:10628200E4901BC8F09009D0F0901BC6F0901BC69A
:10629200E0FFC39408400302634974292FF8E69093
:1062A2001BC9F0E07003026340E4901BC7F0901B2F
:1062B200C7E0FFC39408400302634074017E00A854
:1062C20007088005C333CE33CED8F9FF901BC9E04F
:1062D200FDEF5D6060901BC8E0FF901BC6E03333AA
:1062E2003354F8FEA3E02E900000F02542F582E43C
:1062F2003541F583E0FEEF4E901BC8F03011369029
:1063020009D0E0FFC394094004C2118028EF600D58
:10631200247FF582E43409F583E04480F0900000A4
:10632200E0FF9009D0E0FE04F074802EF582E434A0
:1063320009F583EFF0901BC7E004F00262B0901BF6
:0C634200C6E004F002628F901BC8E0FF70
:01634E00222C
:106BEB00754900754A5C126044901D3AE07004745C
:106BFB0080F022E4901D3AF0901D38124C62FEC3D7
:106C0B00EF94FFEE940F901D38500C124E0A240196
:106C1B00FFE43E124CFF22E054E0F0A3E05401F0FD
:016C2B002246
:105D570090078AE024FE606B24F0606724137003C9
:105D6700025EF024FE6003025EF5900045E0FCA3AE
:105D7700E0FDAE047802CEC313CE13D8F9FFEE547C
:105D87000FFEEF25E0FFEE33FE901D38E054E0FAFA
:105D9700A3E05401FBEA4EFEEB4FFF901D38EEF0F7
:105DA700A3EFF07E00ED54037806C333CE33CED88D
:105DB700F9901D3AF0124FBFE490076FF090078AF1
:105DC7007402F0124E86400512505FF02290078A47
:105DD700E0B4121E7402F0124D98900766E0FF902F
:105DE700076FE014FEC3EF9E900766F090076F748D
:105DF70001F0124C53FEEF7802C333CE33CED8F9FD
:105E0700FFEE900002124D0B126BEB125069124D10
:105E170016947F500E745C2F124C1D124FC6124CF5
:105E27000B80EB124DA86013124D7D449CF0A3E04C
:105E37004FF090078A74FFF0C21622900002E0FE2E
:105E4700A3E0FF900049E0B50616A3E0B5071112DD
:105E57004C53FEEF7802C333CE33CED8F9124DD26E
:105E6700900060E020E703025EF590076FE004F022
:105E7700124E20126282124E97EFF0124B7EEFF015
:105E8700301112E4900770F0124DE25036124B7247
:105E9700124C0A80F3124D72124B88124E8E124D1D
:105EA700169404500B124FAD124B7A124C0A80EE27
:105EB700E4900770F0124D72124B88E4124C0BE01D
:105EC700B404F21267DE124E86402390045FE4F0BA
:105ED7009004A8E0FFFD12505F4DF0EF2479900881
:0F5EE700E3F090078A7412F022E490078AF02209
:106C6900901D3AE06004E4F08029901D3A7480F0A8
:106C7900901D38124C624F901D38600E124E0A2436
:106C8900FFFFEE34FF124CFF8009E0441FF0A3E040
:0C6C990044FEF0754900754A5C0260443E
:105BAA00124E86400A90045EE04480F0A3E0F09032
:105BBA0008E0E0146023146066147003025D472451
:105BCA00036003025D56901D3B124BA712507312DD
:105BDA004FBF9008E07401F02290045EE030E703C2
:105BEA00025D56126C69E4900000F0F528745C2599
:105BFA0028124C1D124FC6F00528E528B47FEE1274
:105C0A004DA86003025D40854082853F83124C3176
:105C1A009009E3124CF3C312416E5003025D569091
:105C2A00045EE030E703025D569008E0E0B4020546
:105C3A00126C6980069008E07402F0E4900000F0AB
:105C4A00F528745C2528124C1D124FC6F00528E56C
:105C5A0028B47FEE124DA86003025D40854082851C
:105C6A003F83124C319009D7124CF3D312416E4044
:105C7A0003025D40854482854383124C3190004B78
:105C8A00124BB6124EDE7011124C2690004F124B78
:105C9A00B6124EDE7003025D56300F19901B06E0F5
:105CAA0020E00A90045EE04401F0A3E0F0754506A6
:105CBA0075464C8006754505754642C211124E97C7
:105CCA00743FF0301117E4900770F0124DE2503231
:105CDA0074802EF582E43409124BF580EE124E35AB
:105CEA00124E8E124D1694045008124FAD124BF5F7
:105CFA0080F1E4900770F0124E35E4124C0BE0B4D8
:105D0A0004F51267DE124D7D4484F0A3E04FF0E4FF
:105D1A009008E3F090097375F001124017FED390D2
:105D2A000789E095F0900788E09E5020200F0790A1
:105D3A00045EE0547FF09008E07403F022124D7D77
:0C5D4A00F0A3E04FF0C20CE49008E0F081
:015D5600222A
:106C2C00E4FF901BC6F0A3F074B12FF582E434049A
:106C3C00F583E0FD901BC7E02DF0901BC6E03400FF
:106C4C00F00FBF8AE390053BE0FEA3E0FF901BC66C
:0C6C5C00E06E7003A3E06F6002C322D35F
:016C68002209
:10436300900991E01241C843B90043D20145A30229
:10437300474703495D05491A0845A30946EC0B471E
:104383001A0F47DC1044A93145F8334689354A2DC5
:104393003744A93D47D141486F4348DB454A3D4730
:1043A3004A114D47745347955B4B2D7B4A52CC4A78
:1043B3006DFF00004AE090045CE020E703024B48F5
:1043C3009004B1E0900460F09009917401F022121E
:1043D3004F3B30E603024B48124CAF5040901D3721
:1043E300124BA790076112417F9008E0E0900462AE
:1043F300F09009E3124C3190077812417F900788BF
:10440300E0FFA3E0900047CFF0A3EFF0900973E043
:10441300FFA3E09004A5CFF0A3EFF0C20CC20F30CE
:10442300381074221250279009C57422F0A3E4F0C7
:10443300801990045CE05403A37F004420FEA3F0A2
:10444300A3EFF09009C5EEF0A3EFF0900460E0FF56
:104453001241C844960344960B44960F4496314444
:10446300963344963544963744963D449641449654
:104473004344964544964744964B44964D44964F41
:1044830044965144965344965B44967B4496DB0092
:1044930000449C900991EFF022124D40A3E0448424
:1044A300F0A3E002476D126C2C4003024A42125003
:1044B30079E4F528124BE1744B2528F582E43400A6
:1044C300124E01B408EEE4F528124BE17465252879
:1044D300F582E43404F583124D91B440EC124BE1C0
:1044E3007E00900788EEF0A3EFF0700874FF90074A
:1044F30088F0A3F0E4900973F0A3F07545097546BD
:10450300D1F528124BE1124FCD70020545124D8CA7
:10451300B404F0125080124BE1124FCD70020545E6
:10452300124D8CB402F0124E47C004C005C006C041
:10453300079009D1124C31123D56D003D002D0015D
:10454300D0009009D7124E9E7545097546D1E4F502
:1045530028124BE1124FCD70020545124D8CB40465
:10456300F0125080124BE1124FCD70020545124DEF
:104573008CB402F0124E47C004C005C006C00790B9
:1045830009D1124C31123D56D003D002D001D000D4
:104593009009E3124E9E124D409009917402F0224D
:1045A300E49004A8F0754104754265753B08753CB9
:1045B300E4C2117B017A00794B124FEE1262821230
:1045C3004E97EFF0124B7C124D70124B887440F0F3
:1045D3001267DE90045FE4124C434FF0900991E0C0
:1045E30064026003024B45E49008E0F0D20C9009AA
:1045F300917408F022126C2C4003024A42E41250D8
:104603002FC20EFF124B49900000F0F528124DBA4D
:1046130024B1124BEB124D1DFF12508A124E01B4FE
:1046230008EBE4F528124DBA24B1124BEB124D1DE1
:10463300FF125094124E01B408EBE4F528124DBA60
:1046430024B1124BEB124D1DFF12509E124E01B4BA
:1046530008EBE4F528124DBA24B1124BEB124D1DB1
:10466300FF1250A8124E01B432EB900000E0C39445
:1046730082500DE004F024B1124BEB124D1D80EA81
:10468300126DE10246D7126C2C4003024A427F00AE
:10469300124B49900000F0F528124DBA24B1124B89
:1046A300EB124EEF74042528124F8BEF124DB924F1
:1046B300B1124BEB124EEF748B2528124F96124D0D
:1046C30091B440D5900532E090015EF0900533E05F
:1046D30090015FF075FFA51250B27E24126B031296
:1046E3004D3D9009917405F022126C2C4003024A4F
:1046F300427E047FB11260495043E4F528124F0013
:10470300AF28124B6740F612604E90052AE0FFF483
:10471300602B126A4D8026126C2C4003024A429091
:1047230004B2E0B41F09124FD474AAF0126A6530C0
:104733003809901D0CE04401F08002D22F900991BA
:104743007403F022900460E0B40308126C2C40035D
:10475300024A42E49004A8F0124D41124DEF126058
:10476300539004A8EFF0124C494FF0900991024B7B
:1047730045126C2C4003024A42124D40124DEF1277
:1047830060589004A8EFF0124C494FF09009910241
:104793004B45126C2C4003024A42E4F528124F00A9
:1047A300E528240BFF124B6740F390052AE0FFF442
:1047B3006003126A4D124D40124DEF12605890047F
:1047C300A8EFF0124C494FF0900991024B45E49049
:1047D300096CF09009917410F090096CE0D3940186
:1047E3005003024B4890045CE05403FEEEB4010412
:1047F3007F0180027F008F2874B22FF582E4340496
:10480300F583E024FE601B24FE602414602B1460F7
:104813003214603924067045124DEFAD2812605DE5
:104823008036124DEFE4F52DAD2812606280291217
:104833004DEFAD28126067801F124DEFAD28126057
:104843006C8015124DEFAD28126071800B124DEF85
:10485300752D01AD281260629004A8EFF0124C3D53
:104863004FF0A37420F0900991024B451250B9B454
:10487300430D126C2C4003024A42124D408002C287
:104883000AE4F52812508AF583E0FF124B7E124F9B
:10489300DBB408F0E4F528125094F583E0FF124BE3
:1048A3007E124FDBB408F0E4F52812509EF583E046
:1048B300FF124B7E124FDBB408F0E4F5281250A828
:1048C300F583E0FF124B7E124FDBB432F0124C44FF
:1048D3004FF0900991024B451250B9B4450B126C3D
:1048E3002C4003024A42124D40E4F5287404252863
:1048F300F582E43400124B7AEFF0748B2528F582AD
:10490300E43407124B7A124D91B440E0124C444FF9
:10491300F0900991024B45754104754265300C10C6
:104923009009C5E0FEA3124D854EF0A3E04FF0229F
:10493300124F3B30E603024B48EF60179009C5E086
:104943004484FEA3124D854EF0A3E04FF0900991ED
:10495300024B459009917409F0227F00124B547465
:104963005C2528124C1D124EADB480F3124F4570D6
:1049730003A3E06F60051250798005E4900000F016
:1049830075FFA57F82124B54745C2528124C1D12AF
:104993004EADB480F3124F457003A3E06F600790F0
:1049A3000000E04402F0900460E064337030900053
:1049B30000E0FF30E02174331250C37435F0EF3060
:1049C300E1047FCE80027F00124F55124C4944040C
:1049D300F0900991024B459009917443F0229000A5
:1049E30000E0FF30E12174351250C37433F0EF302F
:1049F300E0047FCE80027F00124F55124C494404DD
:104A0300F0900991024B459009917445F022126C84
:104A13002C4002802A7B017A0479B2126076E490FA
:104A2300096CF0900991747FF022126C2C40028083
:104A33000E124D3D900991024B45126C2C4007908C
:104A4300099174CCF022124D40900991024B45120A
:104A53004C494402F0A3E0900542F0A374CC124FFA
:104A630059124D40900991024B4590045EE030E7A6
:104A730003024B48124C6ED20FC238300E52D20C86
:104A8300900761124C31125073900462E09008E079
:104A9300F09009D712418B00000000900778124C68
:104AA300319009E312417F124B9090004F12417FE6
:104AB300900047E0FFA3E0900788CFF0A3EFF090CA
:104AC30004A5E0FFA3E0900973CFF0A3EF12503ADF
:104AD300124FBFE4900460F0900991F02290096CAA
:104AE300E0D39401405F90054274C0F09004A87431
:104AF30001124E90124D169408501674892FF582A8
:104B0300E43409F583E0FF124B7EEFF0124C0C8086
:104B1300E3124E97743FF0753B08753CE41267DE71
:104B2300124C3D4FF090099180187E047FB21260C1
:104B33007B5009C2239009917441F022124D409099
:054B4300099174FFF070
:104B4800227D047C017E24126CDDE4227D827C00BF
:104B58007E24126CDDE4901BC4F0A3F0F528221229
:0A4B680060800528E528C3940A22A6
:105481009009CFE01241C854A700551A01554402B2
:1054910055890354EC11551A2156E42256FF23571E
:1054A10063FF0000578F900044E0FF30E60302578E
:1054B10094EF30E22254FB900044F0201619D216EA
:1054C10090076FE0FF900766E02FF0E49004ADF0E5
:1054D1009009CF7411F0222009030257949009CF4B
:1054E1003016047421F0227401F022124FD4745545
:1054F100F09000457C007D62124C8D124FF99009AD
:105501007912418B0000000090097512418B000057
:105511000000C209C21002578F124F3B30E603024E
:105521005794124CAF500E901D37124BA790076144
:1055310012417FC20CC20F74101250279009CFE0A4
:1055410004F022E49004A8F090076DE0FEA3E0FFD0
:105551004E6010745A2FF58274073EAF82F53B8F6F
:105561003C8006753B08753C5E75410775428B9022
:10557100097EE090075DF090045EE04410F0A3E046
:10558100F09009CF7403F022E53C247AF544E43528
:105591003BF543854482124C2FE4FBFAF9F8C31220
:1055A100416E702C124C26E4F8C312416E7021C278
:1055B100110B7A097975124FEE126282124E97EF32
:1055C100F0124B7E124D70124B887440F00256114E
:1055D100124E20126282124E97EFF0124B7EEFF0C4
:1055E100301112E4900770F0124DE25023124B7209
:1055F100124C0A80F3124D72124B88124E8E124DCC
:10560100169408500B124FAD124B7A124C0A80EED1
:105611001267DE74DCB53C0D7407B53B08753B08B9
:10562100753C5E800C747E253CF53C74FF353BF582
:105631003B90075DE014F06008124E86500302575C
:1056410094900975E030E06A9015F4E030E024C2EE
:1056510023901B1F7401F09004B17441F0A37407EF
:10566100F090045C7480F0A37402F0E4A3F0A3F062
:105671000256BD124E86503A901D3CE0FF124B7E01
:10568100EFF0901D3DE0FF124B7EEFF0901D3EE0EC
:10569100FF124B7EEFF0E4F584124D72124B88E558
:1056A100EFF09004AA124B7CEFF09004AA7401F081
:1056B1008000124D824494F0A3E04FF090097912DA
:1056C100418B0000000090097512418B0000000021
:1056D100C210124D9890076FE0900766F0E49007B2
:1056E1006F805FE49004A8F075410775428B1250FA
:1056F1004290078A7401F09009CF7423F02290043C
:105701005EE054C06003025794900044E0FF30E42F
:1057110003025794EF30E02D54FE900044F0D2166E
:10572100E49004ADF0124FD47455F0900045E0FFC1
:10573100A3E07C007D62124C91124FF9C210E490FB
:10574100078AF08016125D5790078AE060041250B4
:105751004222124FD474AAF0126A659009CF74FFE5
:10576100F02290045EE020E72AA2109209300E0E8A
:10577100D20C900761124C3112507312503B124FF0
:10578100BF7543007544D7124C6ED20F8000E49070
:0457910009CFF0222A
:016DE100228F
:1050CD007528007529DCC235E4900000F07D82FC66
:1050DD00FF125471900770F0124D169480500E749B
:1050ED005C2F124C1D124D53124C0B80EB124DC107
:1050FD007003A3E06F600302518D900770F0124DA5
:10510D001694085015124C13FE74802FF582E4345A
:10511D0007F583EEF0124C0C80E4E4900770F0126A
:10512D004D1694085015124C13FE74532FF582E44E
:10513D003400F583EEF0124C0C80E4E4900770F02F
:10514D00124D1694085015124C13FE74D42FF5827F
:10515D00E43407F583EEF0124C0C80E4E490077014
:10516D00F0124D1694324003025269124C13FE7424
:10517D00932FF582E43409F583EEF0124C0C80E1A7
:10518D00D20A90078012418B8103000F9007841281
:10519D00418B0000000090005312418B0000000075
:1051AD0090005712418B000000009007D412418BE4
:1051BD00000000009007D812418B000000009009FC
:1051CD00957401F0A37432F0A37401F0A374ECF0A4
:1051DD009009937401F0A3745AF0E490099DF0A323
:1051ED00F090099FF0A37405F09009A1124F619002
:1051FD0009A5124F619009A9124F619009AD124F87
:10520D00619009A37401F0E4A3F09009A704F0E400
:10521D00A3F09009AB04F0E4A3F09009AF04F0E41F
:10522D00A3F0A37402F09009B3F09009B5F09009C2
:10523D00B7F0E49009B2F09009B4F09009B6F0908F
:10524D0009B8F090099904F0A37450F0A37401F01B
:10525D00A374F1F09009B97401F0A3F075FFA512D4
:10526D006DE1E4900000F07D82FC7F82125471901C
:10527D000770F0124D169480500E745C2F124C1D59
:10528D00124D53124C0B80EB124DC17003A3E06F06
:10529D007021900770F0124D1694405032124C133D
:1052AD00FE124F88EEF0124C13FE124F93EE124C7D
:1052BD000B80E3E4900770F0124D169440501012DD
:1052CD004F93743FF0124F88743F124C0B80E912CC
:1052DD0050B27E20126CDD75FFA575280175295E13
:1052ED00125004124F9E5014124D48F0901BC7E0FF
:1052FD0004F070EF901BC6E004F080E775FFA51277
:10530D004DC17003A3E06F70359000B7E0901B198D
:10531D00F0D394084002E4F0E4900770F0901B196C
:10532D00124DE5502074B82EF582E43400F583E07B
:10533D00FF74262EF582E4341B124C0880DFC23632
:10534D00126085D235E4900000F0901D327490F01B
:10535D0030280512608A800312608F75FFA5901D9D
:10536D0028E030E4EB901D28E020E551E490077033
:10537D00F0124D1694085045E0FE90201293FD74E6
:10538D00292EF582E4341DF583E06D602B9000002D
:10539D00EFF0900000E0C394085016E0FF2429F5CB
:1053AD0082E4341DF583E0FE12504DEE124DB980AE
:1053BD00E175FFA5D2358005124C0C80B4E4900741
:1053CD0070F0124D1694085058EF90201293F4601F
:1053DD004BE4F520900000F0900000E0FFC394072F
:1053ED00500EEF90201293FF126094124DBA80E888
:1053FD00902019E49365206028900770E0900000DC
:10540D00F0900000E0FFC39408500A12504D74FF55
:10541D00124DB980EC75FFA5D2358005124C0C806C
:10542D00A175FFA5303536125004124F9E5014123F
:10543D004D48F0901BC7E004F070EF901BC6E004E0
:10544D00F080E7901BC4E0FFA3E0852982852883C7
:10545D00CFF0A3EFF01250B27E20126B03900777BE
:03546D007402F0D6
:10547000227E24126CDD75FFA5E4901BC4F0A3F01E
:015480002209
:0A6DCD00E4901CCBF09008E1F022E6
:0A6DD7007A00790075B11102421B29
:1028000012609975FFA5D29775840F75D8FFD2A66F
:10281000D2B2D2A5C2B3C2B1901A747407F0A37435
:10282000DFF0901A73740AF0901A7204F0E4901AB0
:1028300071F0901A70F0901A6FF075840FA2D84062
:10284000079015F4E04401F0C2B512609E1260A337
:1028500075FFA51260A81250CD75FFA590099FE0E5
:10286000FFA3E090077ECFF0A3EFF01260AD75FFFD
:10287000A5D2B51260B21260B71260BC75FFA57523
:10288000FFA51260C1E490075AF0A3F090075AE048
:10289000FEA3E0FFC39404EE9401501D74DC2FF5F9
:1028A0008274073EF58374FFF090075BE004F070DC
:1028B000DB90075AE004F080D375FFA51260C612C2
:1028C0006D1090005CE0B45503D38001C3923A9040
:1028D0000061E0B45519D2167E007F628E3D8F3EB6
:1028E00005828E83124D9B900066E0900766F09003
:1028F000005DE0900768F0E004F090005DF0126A7F
:102900006575FFA51231F96005EF9004A8F012601B
:10291000CB900772EFF0BFFF0890097DE09007723F
:10292000F090097DE0FF900772E0FE6F6024EE14E6
:10293000600824FC500D2405701090098AE04410B2
:10294000F0800790098AE04420F0900772E0900937
:102950007DF0900772E05407FFC454F09008E8F04F
:102960001260D01260D51260DA4003022BB8901DBD
:1029700022E0940A901D21E094005004E4F0A3F0BA
:10298000901D21E0FCA3E0FDE4123D1D7B9A7A0737
:1029900079A0783E123AF990075612417F7F9A7ECD
:1029A000997D197C40124CF074FF123CA150051225
:1029B00050798018E4900000F0124CF0E4FFFE7DA6
:1029C000407C41123C029009D112417F9008E1E025
:1029D000FF20E009901D13A3E09008EAF0EF20E14A
:1029E00009901D15A3E09008EBF09008E1E020E2CB
:1029F00009901D17A3E09008ECF09008E1E0FF209B
:102A0000E309901D19A3E09008EDF0EF20E4089091
:102A10001D0EE09008EFF07DCC124CEB74FF123CE1
:102A2000A1600A40089008EE74FFF080107D20122B
:102A30004CEB123AF9123D569008EEEFF09008EE8A
:102A4000E0C3940A5002E4F075FFA5900964E01316
:102A500013540175F005A4FF900994E07C002FFF4A
:102A6000EC35F0FE9008EEE0D39FEE6480F87480C1
:102A700098501E900964E04404F09007CCE020E2F6
:102A800035900993E020E0047F0180027F00EF8011
:102A900016900964E054FBF09007CCE030E2179008
:102AA0000993E0A2E1E433540125E025E0FF90071B
:102AB000CCE054FB4FF0C3901D1EE09432901D1DDE
:102AC000E0940090075FE040054401F0800354FE6D
:102AD000F0900964E013124F11900996E0C39FFF34
:102AE0009008EFE0FDC3EF6480F8ED648098402B20
:102AF000900964E04408F09007CCE020E347900997
:102B000095E020E0047F0180027F00EF124E5C30F0
:102B1000E033900780E030E32C8023900964E05498
:102B2000F7F09007CCE030E31C900995E0A2E1E4D7
:102B300033124E5C30E10E900780E030E3079008DE
:102B4000E1E04410F0900964E0C4124F139009983A
:102B5000E0FB3395E0FAEF2BFFE5F03AFEED124F84
:102B600069502B900964E04410F09007CCE020E419
:102B700047900997E020E0047F0180027F00EF1278
:102B80004EC030E033900780E030E42C8023900981
:102B900064E054EFF09007CCE030E41C900997E03B
:102BA000A2E1E433124EC030E10E900780E030E441
:102BB000079008E1E04410F075FFA5302805126089
:102BC0008A800312608F75FFA5901D27E0FF647F48
:102BD0007003022C9B900964E0C413540175F00348
:102BE000A4FE90099AE0C39EC36480F8EF648098C5
:102BF000401E900964E04420F09007CCE020E535C9
:102C0000900999E020E0047F0180027F00EF8016A8
:102C1000900964E054DFF09007CCE030E5179009AC
:102C200099E0A2E1E4335401C43354E0FF9007CCAF
:102C3000E054DF4FF0900964E0C4124F1190099CFA
:102C4000E0FD3395E0FCEF2DFFE5F03CFE901D2705
:102C5000E0FD124F69501E900964E04440F0900777
:102C6000CCE020E63690099BE020E0047F01800262
:102C70007F00EF8016900964E054BFF09007CCE02D
:102C800030E61890099BE0A2E1E4335401C43333E9
:102C900054C0FF9007CCE054BF4FF01231F96005EB
:102CA000EF9004A8F01260DF75FFA51260E475FFD5
:102CB000A5C20B1260E975FFA5300B0990045EA355
:102CC000E09004A8F01260EE75FFA5125EF6200DEC
:102CD00019C39004ACE094A09004ABE09405400AC2
:102CE000E4F0A3F0C215900768F030154790099FF3
:102CF000E0FEA3E0FFC390077FE09F90077EE09E89
:102D00005003022D89200D0A900989E04480F002C9
:102D10002D829007CCE030E07090045CE054C0A3BA
:102D200070679004B1744FF090045C7481F0A374E8
:102D300001F0804E90077EE07002A3E0604B124FDE
:102D4000B69004ABE0FCA3E0FDC39FEC9E403312C1
:102D50004FB6EDB5070BECB50607900989E0448046
:102D6000F0D215124FB6C3ED9FFFEC9EFE90099F67
:102D7000E0FCA3E0FD123F8C90077EECF0A3EDF0A9
:102D80008007E490077EF0A3F01260D09008E8E09E
:102D9000FFA20AE43333333354F8FEA23AE4334E4D
:102DA000FEEF4EF0124BB3FBC000C001C002900713
:102DB000CC124BA7900964124BB6125010D002D01F
:102DC00001D000900989124D6190098D124BB6FB1C
:102DD000C000C001C0029007D0124BA79009681232
:102DE0004BB6125010D002D001D00090098D124D78
:102DF00061200803023172C20875450975466EC22A
:102E0000ADE4900770F0900770E0FF2546124E3F4A
:102E1000E0FE124ED3EE124C0BE0B404E9D2AD90BA
:102E20000964E020E00302316F9009C7124BB6FB42
:102E3000C000C001C0029007D4124BA7124BB312BE
:102E40004DF6FCD002D001D0009009C7124F799006
:102E500009CB124BB6FBC000C001C0029007D812CC
:102E60004BA790098D124BB6124DF6FCD002D00143
:102E7000D0009009CB124F791260F3901CCAE05435
:102E80000F4F9008E9F09009CFE064037003022F20
:102E9000F09009C7124BA7EC4D4E4F700F9009CB25
:102EA000124BA7EC4D4E4F7003022F6B301649901A
:102EB0000766E004F0300903022F54E0C3648094F5
:102EC000B24012900049124D9B9007667419F09021
:102ED00009CF7411F0900766E064197077901D3E79
:102EE000E0901D3C124C5AFEEF7802C333CE33CE35
:102EF000D8F9124DD2022F54900975124BA79009A0
:102F0000C7124BB6900975124C9F900979124BA7C6
:102F10009009CB124BB6900979124D2D20102B90B1
:102F20001D3EE0C413135403FD7C00901D3C124C65
:102F300062FEEF7802C333CE33CED8F9900002128E
:102F40004DD590076F7401F0800690076FE004F094
:102F5000D210D209900777E0900992F09008E8E04B
:102F60004480F090096D7402F08008301005E49000
:102F7000096DF090096DE0FF04F0EFC3940240701A
:102F80007401124E90124D16947A500D124ED3E0E9
:102F9000FF124E71124C0880ECE4900770F0124D55
:102FA000169408501874C72FF582E43409F583E0AD
:102FB000FF124E71F583EFF0124C0C80E190076D1B
:102FC000E0B4010CA3E0B40407E490076DF0A3F0B3
:102FD00090097EE0C394025003E004F09009CB1204
:102FE000418B000000009009C712418B00000000D7
:102FF00075FFA5900777E0FF900992E004F0C39F6A
:103000005003023172E4F09015B97403F030143CAF
:10301000C214C20D900989124BA79009DB124BB65E
:10302000900989124C9F90098D124BA79009DF12CD
:103030004BB690098D124D2D9009DB12418B00008B
:1030400000009009DF12418B0000000090098912F6
:103050004BA7900780124BB6900989124F1B90091D
:103060008D124BA7900784124BB690098D124F1BFF
:10307000300D249009DB124BA7124BB39009DB12E1
:103080004F2B9009DF124BA790098D124BB6900978
:10309000DF124F2B023141900989124BA7EC4D4EA4
:1030A0004F700F90098D124BA7EC4D4E4F700302DD
:1030B0003141E4900770F0900770E0FF2489F582B9
:1030C000E43409F583E0FE745F2FF582E43409F5FA
:1030D00083EEF0124C0CE0B404DD125069124D1670
:1030E000947F500C124ED3E0124FC6124C0B80ED61
:1030F0009004AEE0FF900000E06F900963F0754926
:1031000008754AE41260F875FFA59008E8E0547F5E
:10311000F0900053124BA7124BB3124DF64D4E4F89
:103120007011124BA490098D124BB6124DF64D4EF4
:103130004F600E9004B0E004F070069004AFE0041D
:10314000F0900964124BA79007CC12417F90096858
:10315000124BA79007D012417F90098D12418B002E
:1031600000000090098912418B00000000800012CD
:103170006DCD75FFA5300C03125BAA75FFA5303825
:1031800006124363022901900991E07003125481F1
:103190009009CFE0700312436375FFA5200F03026F
:1031A000290190045EE04408F0A3E0F09004AFE051
:1031B000FAA3E0FB4A7003022901300C0302290143
:1031C0009009D712418B000000009009E312418B57
:1031D000FFFFFFFF124B9090004F12417F90078836
:1031E000EAF0A3EBF0E4900973F0A312503AD20C8A
:1031F00012502F125BAA02290190045EE0A33392C1
:103200000B1260FD75FFA512610275FFA590045EAB
:10321000E0FEA3E0FFEE5480FCA20BE433FBEB4C9A
:01322000228B
:10364900501D1300000000000000000000000000F1
:10365900000000411D0E00C139411D2300411D24F8
:0836690000441D0F00000000E9
:10367100014B00441D3B00000000441D37000000C9
:013681000048
:10656500696E7465726E65742E6265656C696E65BB
:106575002E727500006265656C696E650000504F8E
:106585005354202F49746572697353657276657229
:106595002F7765627265736F75726365732F70739C
:1065A50069642F7075745F647420485454502F319A
:1065B5002E310D0A000053455450415353202200FB
:1065C50052455345542000535441545553004750A8
:1065D5005253202200485454502022005350454322
:1065E5005452554D200053455450484F4E45532065
:1065F5000047455450484F4E45530047455456456E
:08660500520052454C452000F3
:10368200411B2200411B2400411B2500411B2F002E
:10369200411B3000411B3200411B3300411BC20061
:1036A200411B1400411B1600411B1800411B2E0038
:1036B200411B3100411BC100411BC300411B1500CE
:1036C200C12FC132C130411B1700411B1F00411BDA
:0236D2001A00DC
:1036D400501C8200000000000000000000000000F8
:1036E400000000501C7200000000000000000000F8
:1036F400000000000000441C6E00000000501CA2EA
:1037040000000000000000000000000000000000B5
:10371400501C9200000000000000000000000000A7
:0A372400000000441C6A00000000D1
:105795004552524F004F4B002B435041533A203056
:1057A500002B4352494E4700564F49004E4F204368
:1057B5004152002B434D4520455252002B434D533A
:1057C50020455252002A453249504F3A002A453267
:1057D5004950413A00434F4E4E45002B434C4950EA
:1057E5003A002B435343413A00313435002B4350A3
:1057F50042523A002B4353513A002B435245473A04
:10580500002B434F50533A002B434349443A002A57
:10581500453253534E3A002B4344533A002B434DE4
:10582500474C3A002B434D47533A20003E20004158
:10583500545A0D000041542B434D47463D300D0051
:1058450000415445300D000041540D000041542BDA
:105855004950523D393630300D0000415426570D20
:1058650000004A616E4665624D61724170724D611C
:10587500794A756E4A756C4175675365704F6374E7
:105885004E6F7644656341542B435042533D22533A
:105895004D220D41542B43504D533D22534D222C47
:1058A50022534D222C22534D220D004154533130A9
:1058B5003D39300D415453373D39300D41542B435B
:1058C5004E4D493D332C302C302C310D41542B435A
:1058D5004253543D37312C302C310D41542B43501C
:1058E50042523D41542B435343413F0D41542B43B9
:1058F50053510D41542B435245473F0D41542B43C2
:105905004F50533F0D41542B434D474C3D340D41B2
:10591500542B434D47443D41542644310D004154D9
:105925002653310D002B2B2B004154480D41542B90
:1059350043484C443D310D0041544F0D4154410DF8
:1059450041542A453253534E0D0041542A45325392
:105955004D5352493D313030300D0041542A4532C6
:105965004950533D322C362C322C313032300D001B
:1059750041542B4352433D310D0041542B434C4977
:10598500503D310D0041542B434744434F4E543D48
:10599500312C224950222C220041542A454E4144A3
:1059A5003D312C224750525331222C220041542B99
:1059B5004347455245503D310D0041542A45324932
:1059C50050413D312C310D0041542A453249504F4B
:1059D5003D312C220041542B4347534D533D330D4C
:0159E50000C1
:10372E00C11A410FA0004110B700410F9F00411078
:10373E009F00440FA1000000004110BA0041106C20
:10374E00004110B50041107400410FA9FFC11B418B
:10375E0010A1004110B800C121410FAA004110A0D4
:10376E00004110B3004110B900C120C117C11EC1E4
:10377E0022C123C11D41122500C119C11F410FAB2A
:10378E0000410FA50041106D004110730041109DC6
:10379E000041106B00C19C410FA801410FA64B4187
:1037AE00109E015510750000000000000000000082
:0B37BE00000000000000000000000000
:106D8600FF10FFECFF88FE20FFD8FFC4FC40F88010
:046D9600FFF6FFFB0A
:108D0600C2ACE4F584C29C758402C2CAEF25E02495
:108D160086F582E4346DF583E493FE7401938ECB7D
:0E8D2600F5CAD2CAE4F584D29CC298D2AC221F
:108C9400E4FFFE75840F53A1DFF58475B7907584E6
:108CA4000F43A120758901758D01758F37758E036A
:108CB4000FBF00010EEF640F4E70F5438902E58982
:098CC40030E4FB759702758A8209
:018CCD002284
:1089BD0075FF0775FFA575840F75E10F75E21475C9
:1089CD00E34475840F75A43575A58575A61F75A728
:1089DD007AE4F59CF59DF59EF59F75ADFFF58475D3
:1089ED00A30375840175890375888575840275895E
:1089FD0003758885128C94E4F58475D107F584751B
:108A0D00BA60F5BB75BC6875E8C1F5C7F5C675C527
:108A1D00FF75C4FFF584759A7075F80A759D01F59B
:108A2D0084F5B9F5A975911F759872C298F587757A
:108A3D008401759812C298F584F5C0F5C3F5CFF58C
:108A4D008475D90875D840F5F9F5FA75DA46F5FB50
:108A5D0075FC0AF5DBF5FDF5FEF5DCF5E9F5EAF556
:108A6D0084758E01758AFFF58C758BFF758E01757A
:108A7D008D88758920758844F5C9F5CA75CBC4757F
:108A8D00CCFF75CDFF75C80475840175C908F5CA8D
:108A9D00F5CBF5CDF5CCF5C875840275C90875CA49
:108AAD001075CBFF75CDFF75CCFF75C804F58443EC
:108ABD00EF0475A8B4F5B875E60175E741F5F675DF
:038ACD00F701228C
:108C540075FFA5C2AF75840FE4F597758A80E58A20
:108C640030E6FB53A11FE4F58475B78075840F4388
:108C7400A1E0F589D2AFF584C2CAF5CA75CBFBD29F
:108C8400CAFF128D06E4F584C2DE75FE01D2DE222F
:1037C900411D4600411D4400411D4500421D420066
:0137D90001EE
:10696F00E0FCA3E0FDA3E0FEA3E02401FFE43EFE74
:10697F00E43DFDE43CFC2214F5828E83E0F59BD3CD
:10698F00901D41E0954A901D40E095492275840F76
:10699F00C2CC75840F439C202275840FD2CC758492
:1069AF000F539CDF22E475F001124017FCD3EF95D3
:1069BF00F0EE9C22F583E493FE740193FF901D4249
:0F69CF0022E004F0C3940A22054AE54AAE4922A9
:030023000264BBB9
:1064BB00C0E0C0F0C083C082C0D075D01030993915
:1064CB00C2999009E9E0FEA3E0FF4E602A9009E72C
:1064DB00E0FCA3E0243DF582740D3CF583E0F599D7
:1064EB009009E71269B450119009E9E4F0A3F09018
:1064FB0009E7F0A3F08002D212309853C298900FA4
:10650B0098E0FEA3E02401F582740A3EF583E59939
:10651B00F0C3900F9CE094BC900F9BE09402502F23
:10652B00900F99E004F07006900F98E004F0900F34
:10653B009CE004F07006900F9BE004F0C3900F9961
:10654B00E094BC900F98E094024004E4F0A3F0D0E8
:0A655B00D0D082D083D0F0D0E0321F
:0300A3000266B53D
:1066B500C0E0C0F0C083C082C0D075D01030993919
:1066C500C2999009FFE0FEA3E0FF4E602A9009FD04
:1066D500E0FCA3E024A1F582740D3CF583E0F59977
:1066E5009009FD1269B450119009FFE4F0A3F090F0
:1066F50009FDF0A3F08002D213309843C298900FA1
:106705009AE024BDF582E4340CF583E599F0900F09
:106715009DE0C394805017900F9AE004F0900F9D70
:10672500E004F0900F9AE0C394804002E4F09013E7
:10673500BC12696F9013BC12417F901602E4F0D031
:0A674500D0D082D083D0F0D0E03233
:030013000268F48C
:0B68F400C0E0C083C082C0D075D0108F
:1068FF00758400C2A4C2F8759A40759D0575F80B92
:10690F0075FFA5759B0020FF0575FFA580F8C2FFD9
:10691F00E59BA2E19234759B0020FF0575FFA580D2
:10692F00F8C2FFAF9BD2A4759A7075F80A9009FC54
:10693F00E0C3940A5021E004F09009FBE0FE04F05C
:10694F0074EB2EF582E43409F583EFF09009FBE048
:07695F00C3940A4002E4F0BA
:09696600D0D0D082D083D0E03201
:03002B000259E691
:0D59E600C0E0C0F0C083C082C0D075D00802
:1059F300C2CFE55960021559A23BB3923B50030253
:105A03005B9F055E901D461269D05003025B9F9019
:105A13001D46E4F0435E1075840F9004A9E075F011
:105A230002A42443F582E5F0346D1269C3E0FAA3BE
:105A3300E0FBEE5AFEEF5B4E24FF92A6900776E062
:105A430075F002A42453F582E5F0346DF583E493F5
:105A53005AFE7401935B4E24FF92A79007CBE07527
:105A6300F002A42465F582E5F0346D1269C3A3EE58
:105A73005AFEEF5B4E24FF92C87801AF0BAE0AEFDC
:105A830008800633CE33CE92E0D8F8FF901D42EE65
:105A9300F0A3EFF0A31269D05003025B5EE4F0437E
:105AA3005E20A3E004F0943C4034E4F0900964E009
:105AB3004401F090077FE004F0700690077EE00455
:105AC300F09004ACE004F070069004ABE004F090B6
:105AD30004AD1269D04007E4F0301602D2099007F2
:105AE3005CE0600214F090076912696F9007691215
:105AF300417F900001E004F0900760E004F090071C
:105B030065E004F09004A7E004F0900775E004F06A
:105B1300D208200D0C90096E12696F90096E124124
:105B23007F900972E004F090096CE004F09015FA9C
:105B3300E0600214F09015FBE0600214F09016038D
:105B4300E0600214F09013C4E0600214F09015BBFF
:105B5300E0600214F0901602E004F09015F9E060A2
:105B63000214F0900774E004F07006900773E004E9
:105B7300F0900461E004F090097FE004F0E4FFEFAB
:105B830025E024D4F582E4341CF583E475F0011296
:0C5B930040170FBF08E9901D05E004F06A
:0B5B9F00D0D0D082D083D0F0D0E03214
:0300330002615314
:10615300C0E0C083C082C0D075D008C2FEC2FC209C
:10616300FF03026279C2FFE54B1241C861E201619C
:10617300E20261E20361E80461FA0561FC1161FE78
:1061830012620521620522620523620D24620D2538
:10619300620D26620D27620D28621329622E316279
:1061A3002E32622E33624034622E41622E42622EC0
:1061B30043624944625D45624046622E51622E52FB
:1061C300622E53625D5462405562056162056262EC
:1061D3000563620D64620D6562136600006279E512
:1061E3004D254B804C1269D77002054912698650C0
:1061F300030262770262798044800FE59B30E724D3
:10620300803BE54B540F254D8027759B0002627739
:106213001269D77002054914F5828E83E59BF0124B
:10622300698E4005759B00804D8012E54B540F2508
:106233004DF582E4354CF583E0F59B8037D2B6D239
:10624300AA754B0080301269D7700205491269861E
:106253005024754900754A00801A759BFF054AE56D
:106263004A70020549FF901D3FE0FDC3EF9DE549DC
:0F62730094004002054BD0D0D082D083D0E032CF
:0300730002634FD6
:07634F00C0E0C0D075D018BA
:10635600C2CAC2CFE55D245D602514603014604773
:1063660024F3604C1470030263F824116003026482
:106376000812699C755DA375840175CDA6802112EE
:1063860069A8755DA475840175CDF1801375840FB8
:10639600A2CCB35002D227755DA575840175CD4C8C
:1063A60075CC00D2CA805B202702D229C224805233
:1063B60012699C202C10755DB375840175CDF77537
:1063C600CC9AD2CA803C12699CE4FF0FBF02FC1231
:1063D60069A87F000FBF03FC75840FA2CCB35002DF
:1063E600C22C755DB375840175CDF975CCE1D2CA41
:1063F60080101269A8C22475840175CDF875CCCCBD
:02640600D2CAF8
:05640800D0D0D0E0320D
:1037DA00025A1CE54C1CF500000000000000000025
:1037EA00000000411CF401411D0500C137C13841E8
:0C37FA001D0C00461D063A0A30000D0DA3
:10380600420F950000420F980000420F9B000042B5
:1038160009E700004209E90000410F9700410F9AAD
:1038260000410F9D004209FD00004209FF000041D2
:1038360009F9004109FB004109FC004109F5004175
:0538460009F700C13C80
:10384B00C129C127411D3100411D277FC128C1243A
:08385B00411D3201411D28004E
:106CA500485454502F312E3120313030004854543F
:106CB500502F312E312032307800436F6E74656E5F
:106CC500742D4C656E6774683A2000446174653AAA
:086CD50020004B4F443823005E
:10386300421B050000411B1101411B1301411B09B0
:1038730001015E00411B0C00421B0A0000411B03B7
:1038830000411B1000411B1200411B0400411A6E32
:013893000034
:108BF500901B0DE0FF901B04E0FE04F074762EF54B
:108C050082E4341A22901A6CE475F001124017FEC2
:108C1500D3901B0FE095F0901B0EE09E22901B0554
:108C2500E0F0A3E054DFF0E4901B12F02254FDF0D5
:108C3500901B05E054FBF02274762FF582E4341A7C
:0F8C4500F58322901B12F0901B06E054DFF02203
:108D34008F299009F7E0C394FE400875FFA51260DF
:108D4400D080EF9009F7E0FF04F0746E2FF582E411
:088D54003419F583E529F02232
:0B8D5C00755A19755B6E7F0902612AD1
:10800000C2AD855E28E4F55ED2ADE528606930E555
:108010003D5328DF901B0AE07002A3E0600E901B26
:108020000BE024FFF0901B0AE034FFF0901B12E0FD
:10803000600B14F07007901B06E04420F07584027A
:10804000E58830E6047FEE80027FFF128D34E5285C
:1080500030E40B5328EF901B10E0600214F0AF28BF
:108060001528EF6012901B0CE0600214F0901B03C7
:10807000E060EB14F080E775FFA5901B09E024F0A9
:10808000604924FB7003028232241460030282746C
:10809000901B06E030E3030282747F011282875452
:1080A000DFF0E0128C32E054FDF0A3E030E60C90FB
:1080B0001B0AE4F0A3743CF0028274901B0AE07087
:1080C00002A3E0600302827402826C30B729900739
:1080D0005EE05401F07F0D1282B9901B06E054FB64
:1080E000F0E030E604E04402F0901B06E04408F0C3
:1080F000E04440F0028241758401E58830E6159045
:108100001B0AE07002A3E0600B90045EE05483FE63
:10811000EEB4800B901B06E04410F0E04402F090B7
:108120001B06E030E4399016CDE064017031900711
:108130005EE054FEF0901B06E054BFF07F0D128D00
:10814000347F10128D34E4FF128D34901B06E054FE
:10815000FBF0E04408F0901B097415F00282749063
:10816000045EE0FEA3E0FFEE54C3FCE47003EC64A5
:10817000816003028274901B06E030E40302827483
:10818000EE444090045EF0A3EFF0901B05E0440243
:10819000F090045EE05438FEE48EF01241EE81DD92
:1081A000080081AA2000000081F5900460E0FF90A3
:1081B000053DF012612F90053DE0FF1261349005FE
:1081C0003FEFF0900460E0FF64316004EFB43D04E1
:1081D0007F8080027F00900541EFF0802090053D78
:1081E0007432F0901B24E004F090053FF0900541BC
:1081F0007480F08008E490045EF0A3F0229008E21E
:10820000E0240590053EF0E4900540F090045EE027
:10821000FCA3E0FDD39487E494004008E4F0748765
:10822000F0028274EC30E24C900541E04401F0022F
:10823000827430B71490075EE05401F07F0E128212
:10824000B9901B097401F0802B901B06E020E324F9
:1082500090075EE04480F0A3E0F07F0C128287126A
:108260008C32901B0AE07002A3E07008901B0AF0A9
:10827000A37478F075FFA51282C775FFA5128CCE86
:0682800075FFA512885EE7
:1082860022128D34E4FF128D341261119016CD74D2
:1082960001F0E4901B04F0901B1104F0901B13F006
:1082A600901B097410F0901B06E04404F0E054EFB4
:1082B600F0E022128D347F21128D34E4FF128D34CA
:0182C6002295
:1082C700901B06E020E2030284F1126139400302A9
:1082D70084F175FFA5901B11E014602224FC700344
:1082E70002839724FC700302844824F970030284F4
:1082F7004F1470030284AF24116003028556901B4C
:108307000DE0FF640D6028EF640A6023901A6EE0A9
:10831700C3941E4003E4F022901B0DE0FF901A6EF9
:10832700E0FE04F074502EF582E434190283B49011
:108337001A6EE0C3940C40527532FF75336C753476
:10834700A575350075360C1285577009901B05E029
:108357004408F080357532FF75336C7534B2753566
:108367000075360B1285577021901B05E04408F005
:10837700901B11E0601474FF901B0EF0A3F0901B8C
:10838700047401F0901B117405F0E4901A6EF0224A
:10839700901B0DE0FF640D6019EF640A6014901BD9
:1083A70004E0C3948D4003028556128BF5F583EFE5
:1083B700F022901B04E0C3941040617532FF7533BF
:1083C7006C7534BF7535007536101285627029904B
:1083D7001B04E014F02476128C40E0B420F1901BCB
:1083E70004E02476F9E4341AFA7B0112640D901B39
:1083F7000EEEF0A3EFF080437532FF75336C7534E2
:10840700D0753500753606128562702F901B04E013
:10841700B423077E1A7F7612613E801F901B04E00B
:108427007019901B0DE0B40D12E4901A6CF0A3F0D4
:108437007408128C48901B117409F0E4901B04F027
:1084470022901B117410F022128C0A5006128C22F3
:1084570002854D128BF5F583EFF0901B127408F02F
:10846700EF64237034901B04E0FFC39405402A7423
:10847700712FF9E4341AFA7B017532FF75336C7585
:1084870034D77535007536051269DEEF700B901B12
:1084970004F0901B117411F022901B04E0C3948C1C
:1084A7005003028556E4F022901B127408F0128BD9
:1084B700F5F583EFF0128C0A400B901B04E0948CC7
:1084C7005003028556901A76E0B47B0C901B04E0AB
:1084D700FF04F0128C3DE4F0901B06E04480F0743A
:1084E70078128C48E4901B11F022901B06E030E7CD
:1084F7004290045CE054C0703AFF901B04E0FEEF2A
:10850700C39E5014128C3DE0FD74B12FF582E43404
:1085170004F583EDF00F80E2EEFF748190045CF0C8
:10852700A3EFF0128C22901B06E0547FF01261112A
:10853700E48013901B06E030E515E054DFF0E054CB
:0F8547007FF0126111E4901B04F0901B1104F0FF
:10855600227B017A1979501269DEEF227B017A1AA1
:0785660079761269DEEF22B5
:108CCE00901B06E030E230901B13E014701D901BD9
:108CDE0005E01313543F30E01E30121B901B13742B
:108CEE0005F07B017A1679CE126143301209128C8F
:088CFE0035901B137401F022F4
:10660D00436F6E74656E742D547970653A206170A8
:10661D00706C69636174696F6E2F782D7777772D44
:10662D00666F726D2D75726C656E636F6465640D4A
:10663D000A00486F73743A20233A230D0A00436F02
:10664D006E74656E742D4C656E6774683A20230DFB
:10665D000A000D0A0053696D49643D232600426905
:10666D006E3D23260054696D657374616D703D2315
:10667D000053696D49643D00260054696D6573745E
:10668D00616D703D00FF660D3100FF663F0B00FF31
:10669D00664B1300FF665F0200FF66620800FF662F
:0866AD006B0600FF66720B0092
:083894004116CD014116CC00E4
:108AD000901BC4E075F005A42492F582E43466F599
:108AE00083E493FB740193FA740293F9852A8285D7
:108AF0002983023EE6901BC4E0FF75F005A424958F
:108B0000F582E43466F583E493FDC3E52A9DE52907
:108B1000940022FF901BC6E475F00112402DFC74F6
:108B2000CE25F0F58274163CF583EFF022901BC63B
:108B3000E0FCA3E024CEF974163CFA7B0122901BE2
:108B4000C7E02FF0901BC6E03400F02290194EEEE3
:108B5000F0A3EFF0901B05E04404F0227B017A16AD
:078B600079CE7D807C02222A
:10885E00901B06E020E2030289B39016CDE024FBC4
:10886E00700302891E24F5700302894724FB7003EE
:10887E000289A1241460030289AD901B06E020E456
:10888E0008758402E58830E616758402E58820E6D0
:10889E00030289B390075EE04430F0A3E0F022902B
:1088AE00075EE0548FF0901B05E030E2030289B3BF
:1088BE0090045EE0B40816A3E0B400119015F5E044
:1088CE00B4010A90045E74E5F0A37483F090045E24
:1088DE00E054C3FEE47003EE64C160030289B390FA
:1088EE00075EE04410F0A3E0F01286F1128B4C907C
:1088FE001B10740AF0901B05E054F7F07FD9128D0F
:10890E003490064EE0FF1289B49016CD7405F02215
:10891E00901B05E030E304E030E209901B10E060AC
:10892E00030289B3128B5C12856D128B4C7FDB12A6
:10893E0089B49016CD7410F022901B05E020E265EC
:10894E0090075EE054EFF09016017401F0901B0357
:10895E00E070049016CCF0901B037464F09016CC6B
:10896E00E004F0C39403401590075EE04420F0A3AA
:10897E00E0F0E49016CCF0A37415F080069016CDBE
:10898E007401F07FDC128D34E4FF128D34128B678C
:10899E00D20B22901B03E0700C9016CD04F02290A7
:0F89AE0016CD7401F022128D34E4FF128D3422A5
:108B67009008E3E09008E2F0E4A3F090045EE0FCF4
:108B7700EC30E21D9008E2E0700F901B05E054FD19
:108B8700F0E490045EF0A3F022EC54BF90045E8002
:108B97000690045EE0543FF0A3E4F090045EE054D6
:108BA70038FEEEB408067E067F4C80047E057F42C1
:108BB7008E458F46E4FF9008E2E0FEEFC39E502209
:108BC700EF2487FDE433FCE5462DF582E5453CF5CA
:108BD70083E0FDE5462FF582E43545F583EDF00F9B
:0D8BE70080D4EEFF90045EE0F0A3E04FF0BC
:018BF400225E
:1086F100128B5C12856D901BC8EEF0A3EFF0C235B2
:108701007E027F807D007B017A1679CE124337E4A9
:10871100F529F52AE52A90201A93FF601874CE25D1
:108721002AF58274163529F583EFF0052AE52A70BA
:10873100E3052980DF901BC6E529F0A3E52AF09027
:108741001BC57404F0E4901BC4F0901BC5E0FF90BE
:108751001BC4E0FEC39F4003028855EE24FE700354
:108761000287F7046003028831E4F529F52A128AA9
:10877100F5400302884CEF128AD4642370672035D8
:108781004D900770F0900770E0FFC39404503BEFE9
:108791009020CE93FF7E00128B2D126148128B3EEA
:1087A100900770E0C394035019901BC6E475F00163
:1087B10012402DFE74CE25F0F58274163EF58374B9
:1087C1002EF0900770E004F080BBD235801DC235D9
:1087D1009020DAE493FE740193FF128B2D1261480D
:1087E100128B3E8006128AD0128B13052AE52A705D
:1087F10002052902876FE4F529F52A128AF5504B03
:10880100EF128AD4B42318901BC8E0FEA3E0FF1234
:108811008B2D126148901BC7E02F128B43800612EB
:108821008AD0128B13052AE52A700205290287FCDA
:10883100E4F529F52A128AF55011EF128AD4128B28
:1088410013052AE52A70EE052980EA901BC4E0048D
:0C885100F002874B901BC6E0FEA3E0FF86
:01885D0022F8
:06856D008B2B8A2C892DE6
:10857300AE04AF057D00124337A82DAC2CAD2B7B89
:10858300FF7A66797E12431A753401753510753694
:1085930075901089E0FFC313541F753700F538AB8E
:1085A3002BAA2CA92D12686B7534FF7535667536A9
:1085B300851286D51286E5AB2B252DF9E52C3EFADF
:1085C30012614D7534FF753566753687AB2BAA2C52
:1085D300A92D126AAB7E007F197D007B017A1B797E
:1085E300CA124337E4901BE3F0A3F0901A74E0FE41
:1085F300A3E0FF1286B6E475F00112402DFE74CAA3
:1086030025F0F582741B3EF583742EF0901A7312D5
:108613008647742EF0901A721286477420F0901ACF
:108623006F12867D901A7012867D901A71E0FF7E1C
:10863300001286B675340175351B7536CA1286D598
:038643001286E5B7
:1086460022E0FF7E00901BE3A3E024CAF9E4341B7A
:10865600FA7B01126148901BE4E02FF0901BE3E0E7
:108666003400F0E475F00112402DFE74CA25F0F5D1
:1086760082741B3EF58322E0FF7E00901BE3A3E09D
:1086860024CAF9E4341BFA7B01126148901BE4E02A
:108696002FF0901BE3E03400F0E475F00112402D5A
:1086A600FE74CA25F0F582741B3EF583742EF02203
:1086B600901BE3A3E024CAF9E4341BFA7B011261A0
:1086C60048901BE4E02FF0901BE3E03400F022AB6F
:1086D6002BAA2CA92D126AABAB2BAA2CA92D2212E0
:0B86E6006D71901BE3EEF0A3EFF0229B
:106B580054696D650042696E205374617274004215
:106B6800696E20456E64000D00303030300D0074C1
:106B7800696D650D0062696E20616C6C0D0062695B
:106B88006E2072657365740D0042696E3D002600C3
:0F6B9800FF1B094E4F20434152524945520D00F9
:10389C004113BB014115FA004115FB004116030011
:1038AC004113C4004115BB004413C0000000004488
:1038BC0013BC000000004115B9004115F40041167D
:1038CC0001004115F8004115F5004215F6000061A4
:1038DC00F413C50000000000000000000000000010
:1038EC0000000000000000000000000000000000CC
:1038FC0000000000000000000000000000000000BC
:10390C0000000000000000000000000000000000AB
:10391C00000000000000000000000000000000009B
:10392C00000000000000000000000000000000008B
:10393C00000000000000000000000000000000007B
:10394C00000000000000000000000000000000006B
:10395C00000000000000000000000000000000005B
:10396C00000000000000000000000000000000004B
:10397C00000000000000000000000000000000003B
:10398C00000000000000000000000000000000002B
:10399C00000000000000000000000000000000001B
:1039AC00000000000000000000000000000000000B
:1039BC0000000000000000000000000000000000FB
:1039CC0000000000000000000000000000000000EB
:1039DC0000000000000000000000000000000000DB
:1039EC0000000000000000000000000000000000CB
:1039FC0000000000000000000000000000000000BB
:103A0C0000000000000000000000000000000000AA
:103A1C00000000000000000000000000000000009A
:103A2C00000000000000000000000000000000008A
:103A3C00000000000000000000000000000000007A
:103A4C00000000000000000000000000000000006A
:103A5C00000000000000000000000000000000005A
:103A6C00000000000000000000000000000000004A
:103A7C00000000000000000000000000000000003A
:103A8C00000000000000000000000000000000002A
:103A9C00000000000000000000000000000000001A
:103AAC00000000000000000000000000000000000A
:103ABC0000000000000000000000000000000000FA
:103ACC0000000000000000C13D025600000158003B
:103ADC004413B0000000004113B4004113B5004181
:0C3AEC0013B7004113B8004213B90000EA
:10600000C05F7460C0E0C082C083755F0A75B10074
:1060100022C05F7460C0E0C082C083755F1B75B131
:106020001122C05F7460C0E0C082C083755F2C75B0
:10603000B12222C05F7460C0E0C082C083755F3D42
:0460400075B13322E1
:0C5FF400EF240A83906000730A1B2C3D10
:0300000002674F45
:0F674F00787FE4F6D8FD75815F12601B026799B1
:103AF900EC4D6011E8497017ED33EC3304600DE4C7
:103B0900FCFFFEFD22E933E8330470F8023DC212DE
:103B19003D8D58046009E4CC2481500628500902DF
:103B29003DCC284003023DC9C0E0EB4A7044B9804E
:103B390006D0E0FB023DB8EF4E701CBD8008EBFFDC
:103B4900EAFEE9FD80EBE98DF0A4FEE5F0023BE237
:103B5900E9CDF9EAFEEBFFEF89F0A4FCE5F0CE89A7
:103B6900F0A42EFFE435F0CD89F0A42DFEE435F064
:103B79008067EF4E7005BD80D780C3EF8BF0A4AC92
:103B8900F0EE8BF0A42CFCE435F0F8EF8AF0A42CCD
:103B9900E5F038FCE433CB8DF0A42CFCE5F03BF8E0
:103BA900EE8AF0A42CFCE5F038F8E433CF89F0A4D0
:103BB9002CFCE5F038CF3400CE89F0A42FFFE5F0D6
:103BC9003EFEE433C98DF0A42EFEE5F039CD8AF02E
:103BD900A42FFFE5F03EFEE43DFD33D0E0FB5007A6
:103BE9000BBB000F023DCCEC2CFCEF33FFEE33FE98
:063BF900ED33FD023DA4C6
:103BFF00023DCCEC5D046005E859047003023DC240
:103C0F00123D8D580460F6EC4860F2EC7004FDFE36
:103C1F00FF22C860DB2481C85009C3986002500698
:103C2F00023DC99850CAF582E9294B4A7005AB820B
:103C3F00023DB875F0007C1A7880C3EF9BEE9AEDC9
:103C4F0099400DC3EF9BFFEE9AFEED99FDE842F010
:103C5F00DC23ACF0D0E0FFD0E0FED0E0FDAB822063
:103C6F00E7101BEB60BAEC2CFCEF33FFEE33FEEDED
:103C7F0033FD023DA4E803F830E705C0F075F0000E
:103C8F00EF2FFFEE33FEED33FD40B830E7C280AAD1
:103C9F0074F8CC6480CCC86480C8F58204604FC3CC
:103CAF00EB9FF5F0EA9E42F0E99D42F0E89C45F06B
:103CBF00603C501DE5825FFFE582D313CB5BCBF4F5
:103CCF002B5582FB50280ABA002409B9002008801E
:103CDF001DE5825BFBE582D313CF5FCFF4C3132FB8
:103CEF005582FF50090EBE00050DBD00010CC3EB40
:103CFF009FF5F0EA9E42F0E99D42F0E89C45F060A6
:093D0F0007CC4820E701B3EC22C7
:103D180075F020800E75F010800575F0087D007E26
:103D2800007F003392D530D503124160EC33401048
:103D3800EF33FFEE33FEED33FDEC33FCD5F0ED222F
:0E3D4800E5F0247EA2D513CC92E7CDCEFF226B
:103D5600EDD2E7CD33EC3392D524814006E4FFFE65
:103D6600FDFC22FCE4CFCECDCC24E0501174FF80C4
:103D7600EDC3CC13CCCD13CDCE13CECF13CF047061
:073D8600F030D5DE024160C0
:103D8D00E9D2E7C933E833F892D5EDD2E7CD33EC7C
:073D9D0033FC5002B2D522F5
:103DA400EC30E7100FBF000C0EBE00080DBD000480
:103DB4000BEB6014A2D5EB13FCED92E7FD2274FF2C
:103DC400FCFDFEFF22E480F8A2D574FF13FC7D8085
:033DD400E480EF99
:10675E00022800E493A3F8E493A34003F68001F229
:10676E0008DFF48029E493A3F85407240CC8C3333C
:10677E00C4540F4420C8834004F456800146F6DF0B
:10678E00E4800B0102040810204080903221E47E48
:10679E00019360BCA3FF543F30E509541FFEE49300
:1067AE00A360010ECF54C025E060A840B8E493A3C7
:1067BE00FAE493A3F8E493A3C8C582C8CAC583CAF2
:1067CE00F0A3C8C582C8CAC583CADFE9DEE780BEAA
:013AF80000CD
:103DD700E709F608DFFA8046E709F208DFFA803ECE
:103DE70088828C83E709F0A3DFFA8032E309F608BB
:103DF700DFFA8078E309F208DFFA807088828C8323
:103E0700E309F0A3DFFA806489828A83E0A3F608D6
:103E1700DFFA805889828A83E0A3F208DFFA804CB0
:103E270080D280FA80C680D4806980F28033801087
:103E370080A680EA809A80A880DA80E280CA8033F0
:103E470089828A83ECFAE493A3C8C582C8CCC58368
:103E5700CCF0A3C8C582C8CCC583CCDFE9DEE78038
:103E67000D89828A83E493A3F608DFF9ECFAA9F0B7
:103E7700EDFB2289828A83ECFAE0A3C8C582C8CC0D
:103E8700C583CCF0A3C8C582C8CCC583CCDFEADE26
:103E9700E880DB89828A83E493A3F208DFF980CC88
:103EA70088F0EF60010E4E60C388F0ED2402B40481
:103EB7000050B9F582EB2402B4040050AF23234528
:063EC7008223903E2773E8
:103ECD00BB010689828A83E0225002E722BBFE02F3
:093EDD00E32289828A83E4932226
:103EE600BB010CE58229F582E5833AF583E0225091
:103EF60006E92582F8E622BBFE06E92582F8E222DB
:0D3F0600E58229F582E5833AF583E49322F4
:103F1300BB010FF8E58229F582E5833AF583E028B2
:103F2300F0225009C58229F8E58226F622BBFE0954
:103F3300C58229F8E22582F222F8EA2583F583E98E
:033F43009328229E
:103F4600BB010689828A83F0225002F722BBFE015A
:023F5600F32254
:103F5800F8BB010DE58229F582E5833AF583E8F09F
:103F6800225006E92582C8F622BBFE05E92582C84B
:023F7800F22233
:103F7A00EF8DF0A4A8F0CF8CF0A428CE8DF0A42E5B
:023F8A00FE2215
:103F8C00BC000BBE0029EF8DF084FFADF022E4CC19
:103F9C00F875F008EF2FFFEE33FEEC33FCEE9DECE2
:103FAC00984005FCEE9DFE0FD5F0E9E4CEFD22ED28
:103FBC00F8F5F0EE8420D21CFEADF075F008EF2F72
:103FCC00FFED33FD4007985006D5F0F222C398FD63
:053FDC000FD5F0EA2200
:103FE100C2D5EC30E709B2D5E4C39DFDE49CFCEEFB
:103FF10030E715B2D5E4C39FFFE49EFE123F8CC3A8
:10400100E49DFDE49CFC8003123F8C30D507C3E4A2
:064011009FFFE49EFE2269
:10401700C5F0F8A3E028F0C5F0F8E5821582700234
:064027001583E038F022D1
:10402D00A3F8E0C5F025F0F0E58215827002158346
:06403D00E0C838F0E822A3
:10404300E88FF0A4CC8BF0A42CFCE98EF0A42CFC1C
:104053008AF0EDA42CFCEA8EF0A4CDA8F08BF0A49A
:104063002DCC3825F0FDE98FF0A42CCD35F0FCEBF9
:104073008EF0A4FEA9F0EB8FF0A4CFC5F02ECD39BE
:0F408300FEE43CFCEAA42DCE35F0FDE43CFC222B
:1040920075F008758200EF2FFFEE33FECD33CDCCE5
:1040A20033CCC58233C5829BED9AEC99E582984068
:1040B2000CF582EE9BFEED9AFDEC99FC0FD5F0D645
:1040C200E4CEFBE4CDFAE4CCF9A88222B800C1B96F
:1040D2000059BA002DEC8BF084CFCECDFCE5F0CBAD
:1040E200F97818EF2FFFEE33FEED33FDEC33FCEBE6
:1040F20033FB10D703994004EB99FB0FD8E5E4F9A1
:10410200FA227818EF2FFFEE33FEED33FDEC33FC8D
:10411200C933C910D7059BE99A4007EC9BFCE99A81
:10412200F90FD8E0E4C9FAE4CCFB2275F010EF2FC6
:10413200FFEE33FEED33FDCC33CCC833C810D707C6
:104142009BEC9AE899400AED9BFDEC9AFCE899F801
:0E4152000FD5F0DAE4CDFBE4CCFAE4C8F92294
:106BA700C2D5E830E70FB2D5E4C39BFBE49AFAE419
:106BB70099F9E498F8EC30E717B2D5126BDD12407B
:106BC700CEE4C39BFBE49AFAE499F9E498F88003CE
:106BD7001240CE30D50DE4C39FFFE49EFEE49DFD39
:046BE700E49CFC220C
:0E416000C3E49FFFE49EFEE49DFDE49CFC2270
:10416E00EB9FF5F0EA9E42F0E99D42F0E89C45F0A7
:01417E00221E
:0C417F00ECF0A3EDF0A3EEF0A3EFF022B3
:10418B00A8828583F0D083D0821241A21241A21261
:10419B0041A21241A2E473E493A3C583C5F0C58386
:1041AB00C8C582C8F0A3C583C5F0C583C8C582C87E
:0141BB0022E1
:0C41BC00A42582F582E5F03583F583220E
:1041C800D083D082F8E4937012740193700DA3A386
:1041D80093F8740193F5828883E47374029368609A
:0641E800EFA3A3A380DF9A
:1041EE00D083D082F8E4937012740193700DA3A360
:1041FE0093F8740193F5828883E473740293B5F097
:0D420E00067403936860E9A3A3A3A380D8FE
:06421B008A838982E4732E
:10422100EC8EF0A4CCC5F0CCCDF8EFA4CEC5F02D2A
:10423100FDE43CFCE8A42EC8C5F03DFDE43CFCEFE8
:0D424100A4FFE5F028FEE43DFDE43CFC2276
:106DAD00EFC39461400AEF947B5005EF24E0FF227E
:016DBD0022B3
:106AAB008B318A3289338B378A388939AB3105334D
:106ABB00E533AA327002053214F9123ECD70ED7433
:106ACB00FF2533F53374FF3532F532AB340536E53C
:106ADB0036AA357002053514F9123ECDFFAB3105E0
:106AEB0033E533AA327002053214F9EF123F4670C8
:086AFB00DAAB37AA38A93922F1
:10686B008B318A328933E4F539F53AD3E538940024
:10687B00E53764809480406AAB31AA32A933853AFC
:10688B0082853983123EE6600A053AE53A70E905DE
:10689B003980E5AB34AA35A936123ECD60340536C6
:1068AB00E5367002053514F9123ECDFFAB31AA3235
:1068BB00A933053AE53AAC397002053914F5828CE7
:1068CB0083EF123F58E538153870021537144537EA
:1068DB0070C1AB31AA32A933853A82853983E41270
:0968EB003F58AB31AA32A9332257
:1069DE008B2F8A308931AB32AA33A934123ECDFEC9
:1069EE00AB2FAA30A931123ECDFF6E702BEF600D8A
:1069FE00E53615367002153514453570037F0022C5
:106A0E0074012531F531E43530F53074012534F556
:106A1E0034E43533F53380BEAB2FAA30A931123EA4
:106A2E00CDFDD3EE6480F8ED64809840037F0122A3
:0F6A3E00AB32AA33A934123ECDFFC3ED9FFF2226
:10424E00E709F60870FA8046E709F20870FA803E30
:10425E0088828C83E709F0A370FA807EE309F60862
:10426E0070FA8076E309F20870FA806E88828C8389
:10427E00E309F0A370FA806289828A83E0A3F608CC
:10428E0070FA805689828A83E0A3F20870FA804A17
:10429E0080D280FA80C680D4806580F28031801012
:1042AE0080A680EA809A80A880DA80E280CA803177
:1042BE0089828A83ECFAE493A3C8C582C8CCC583ED
:1042CE00CCF0A3C8C582C8CCC583CC70E9800D895B
:1042DE00828A83E493A3F60870F9ECFAA9F0EDFB59
:1042EE002289828A83ECFAE0A3C8C582C8CCC58332
:1042FE00CCF0A3C8C582C8CCC583CC70EA80DD895A
:10430E00828A83E493A3F20870F980CE88F0ED24BC
:10431E0002B4040050C4F582EB2402B4040050BA77
:09432E00232345822390429E7373
:106D7100E4FFFE123ECD600C0FEF70010E09E970C9
:056D8100F20A80EF2280
:105FD800E94A4B700122123ECDFF6D700122EF702D
:0C5FE80004FBFAF92209E970ED0A80EAD6
:10640D008B2E8A2F8930AB2EAA2FA930123ECDFFAD
:10641D00126D9A500D74012530F530E4352FF52F9E
:10642D0080E4D235AB2EAA2FA930123ECDFF642BBE
:10643D006004EFB42D1BAB2E0530E530AA2F700292
:10644D00052F14F9123ECD642D6003D38001C39244
:10645D0035E4F531F532AB2EAA2FA930123ECDFF22
:10646D00126DBE5036AB2EAA2FA930123ECDFF3382
:10647D0095E0FEEF24D0FBEE34FFFAAE31AF327C67
:10648D00007D0A123F7AEF2BF532EE3AF5317401A9
:10649D002530F530E4352FF52F80BB303506AE3184
:0E64AD00AF328009C3E49532FFE49531FE2240
:10433700EF4E6012EF60010EEDBB010B89828A839D
:10434700F0A3DFFCDEFA2289F05007F709DFFCA9AA
:0C435700F022BBFEFCF309DFFCA9F02201
:0F6DBE00EFC394304007EF943A50028001C32294
:106D9A00EFC394094005EF940E4003BF2003D3804C
:036DAA0001C32200
:00000001FF
